{
  "contractName": "Coinflip",
  "abi": [
    {
      "inputs": [],
      "payable": true,
      "stateMutability": "payable",
      "type": "constructor"
    },
    {
      "anonymous": false,
      "inputs": [
        {
          "indexed": true,
          "internalType": "bytes32",
          "name": "queryId",
          "type": "bytes32"
        },
        {
          "indexed": false,
          "internalType": "string",
          "name": "description",
          "type": "string"
        },
        {
          "indexed": false,
          "internalType": "uint256",
          "name": "amount",
          "type": "uint256"
        }
      ],
      "name": "callbackReceived",
      "type": "event"
    },
    {
      "anonymous": false,
      "inputs": [
        {
          "indexed": false,
          "internalType": "string",
          "name": "description",
          "type": "string"
        }
      ],
      "name": "logNewProvableQuery",
      "type": "event"
    },
    {
      "anonymous": false,
      "inputs": [
        {
          "indexed": false,
          "internalType": "address",
          "name": "caller",
          "type": "address"
        },
        {
          "indexed": true,
          "internalType": "bytes32",
          "name": "queryId",
          "type": "bytes32"
        }
      ],
      "name": "sentQueryId",
      "type": "event"
    },
    {
      "anonymous": false,
      "inputs": [
        {
          "indexed": true,
          "internalType": "address",
          "name": "caller",
          "type": "address"
        },
        {
          "indexed": false,
          "internalType": "uint256",
          "name": "amount",
          "type": "uint256"
        }
      ],
      "name": "userWithdrawal",
      "type": "event"
    },
    {
      "constant": false,
      "inputs": [
        {
          "internalType": "bytes32",
          "name": "_myid",
          "type": "bytes32"
        },
        {
          "internalType": "string",
          "name": "_result",
          "type": "string"
        }
      ],
      "name": "__callback",
      "outputs": [],
      "payable": false,
      "stateMutability": "nonpayable",
      "type": "function"
    },
    {
      "constant": false,
      "inputs": [
        {
          "internalType": "bytes32",
          "name": "_myid",
          "type": "bytes32"
        },
        {
          "internalType": "string",
          "name": "_result",
          "type": "string"
        },
        {
          "internalType": "bytes",
          "name": "_proof",
          "type": "bytes"
        }
      ],
      "name": "__callback",
      "outputs": [],
      "payable": false,
      "stateMutability": "nonpayable",
      "type": "function"
    },
    {
      "constant": true,
      "inputs": [
        {
          "internalType": "bytes32",
          "name": "",
          "type": "bytes32"
        }
      ],
      "name": "afterWaiting",
      "outputs": [
        {
          "internalType": "address",
          "name": "",
          "type": "address"
        }
      ],
      "payable": false,
      "stateMutability": "view",
      "type": "function"
    },
    {
      "constant": true,
      "inputs": [],
      "name": "contractBalance",
      "outputs": [
        {
          "internalType": "uint256",
          "name": "",
          "type": "uint256"
        }
      ],
      "payable": false,
      "stateMutability": "view",
      "type": "function"
    },
    {
      "constant": true,
      "inputs": [],
      "name": "freeCallback",
      "outputs": [
        {
          "internalType": "bool",
          "name": "",
          "type": "bool"
        }
      ],
      "payable": false,
      "stateMutability": "view",
      "type": "function"
    },
    {
      "constant": true,
      "inputs": [],
      "name": "owner",
      "outputs": [
        {
          "internalType": "address payable",
          "name": "",
          "type": "address"
        }
      ],
      "payable": false,
      "stateMutability": "view",
      "type": "function"
    },
    {
      "constant": true,
      "inputs": [
        {
          "internalType": "address",
          "name": "",
          "type": "address"
        }
      ],
      "name": "playerWinnings",
      "outputs": [
        {
          "internalType": "uint256",
          "name": "",
          "type": "uint256"
        }
      ],
      "payable": false,
      "stateMutability": "view",
      "type": "function"
    },
    {
      "constant": true,
      "inputs": [
        {
          "internalType": "address",
          "name": "",
          "type": "address"
        }
      ],
      "name": "waiting",
      "outputs": [
        {
          "internalType": "address",
          "name": "playerAddress",
          "type": "address"
        },
        {
          "internalType": "uint256",
          "name": "betValue",
          "type": "uint256"
        },
        {
          "internalType": "uint256",
          "name": "headsTails",
          "type": "uint256"
        },
        {
          "internalType": "uint256",
          "name": "setRandomPrice",
          "type": "uint256"
        }
      ],
      "payable": false,
      "stateMutability": "view",
      "type": "function"
    },
    {
      "constant": true,
      "inputs": [],
      "name": "random",
      "outputs": [
        {
          "internalType": "uint256",
          "name": "",
          "type": "uint256"
        }
      ],
      "payable": false,
      "stateMutability": "view",
      "type": "function"
    },
    {
      "constant": false,
      "inputs": [],
      "name": "withdrawUserWinnings",
      "outputs": [],
      "payable": false,
      "stateMutability": "nonpayable",
      "type": "function"
    },
    {
      "constant": false,
      "inputs": [
        {
          "internalType": "bytes32",
          "name": "_queryId",
          "type": "bytes32"
        },
        {
          "internalType": "string",
          "name": "_result",
          "type": "string"
        }
      ],
      "name": "callback",
      "outputs": [],
      "payable": false,
      "stateMutability": "nonpayable",
      "type": "function"
    },
    {
      "constant": false,
      "inputs": [
        {
          "internalType": "uint256",
          "name": "oneZero",
          "type": "uint256"
        }
      ],
      "name": "flip",
      "outputs": [],
      "payable": true,
      "stateMutability": "payable",
      "type": "function"
    },
    {
      "constant": false,
      "inputs": [
        {
          "internalType": "uint256",
          "name": "oneZero",
          "type": "uint256"
        }
      ],
      "name": "etheroll",
      "outputs": [],
      "payable": true,
      "stateMutability": "payable",
      "type": "function"
    },
    {
      "constant": false,
      "inputs": [
        {
          "internalType": "uint256[]",
          "name": "_guess",
          "type": "uint256[]"
        }
      ],
      "name": "Dice",
      "outputs": [],
      "payable": true,
      "stateMutability": "payable",
      "type": "function"
    },
    {
      "constant": false,
      "inputs": [
        {
          "internalType": "uint256",
          "name": "oneZero",
          "type": "uint256"
        }
      ],
      "name": "Dice",
      "outputs": [],
      "payable": true,
      "stateMutability": "payable",
      "type": "function"
    },
    {
      "constant": true,
      "inputs": [],
      "name": "getWinningsBalance",
      "outputs": [
        {
          "internalType": "uint256",
          "name": "",
          "type": "uint256"
        }
      ],
      "payable": false,
      "stateMutability": "view",
      "type": "function"
    },
    {
      "constant": false,
      "inputs": [],
      "name": "fundContract",
      "outputs": [],
      "payable": true,
      "stateMutability": "payable",
      "type": "function"
    },
    {
      "constant": false,
      "inputs": [],
      "name": "fundWinnings",
      "outputs": [],
      "payable": true,
      "stateMutability": "payable",
      "type": "function"
    },
    {
      "constant": false,
      "inputs": [],
      "name": "withdrawAll",
      "outputs": [],
      "payable": false,
      "stateMutability": "nonpayable",
      "type": "function"
    }
  ],
  "bytecode": "0x608060405233600960006101000a81548173ffffffffffffffffffffffffffffffffffffffff021916908373ffffffffffffffffffffffffffffffffffffffff1602179055506001600960146101000a81548160ff02191690831515021790555033600960006101000a81548173ffffffffffffffffffffffffffffffffffffffff021916908373ffffffffffffffffffffffffffffffffffffffff16021790555034600881905550614fbc806100b76000396000f3fe6080604052600436106101145760003560e01c8063876c0d59116100a0578063b3e2541211610064578063b3e2541214610714578063bae72e551461072b578063bd097e2114610759578063e437786d14610763578063f325b7111461080957610114565b8063876c0d59146105de5780638b7afe2e1461060d5780638da5cb5b14610638578063a5ce84961461068f578063b03063bd1461069957610114565b8063449ed7e0116100e7578063449ed7e0146103e75780635ec01e4d146104b957806369b4cb29146104e4578063741c0a0f1461059c578063853828b6146105c757610114565b8063221e885d14610119578063252f4d811461014757806327dc297e146101ac57806338bbfa501461027e575b600080fd5b6101456004803603602081101561012f57600080fd5b8101908080359060200190929190505050610837565b005b34801561015357600080fd5b506101966004803603602081101561016a57600080fd5b81019080803573ffffffffffffffffffffffffffffffffffffffff169060200190929190505050610c21565b6040518082815260200191505060405180910390f35b3480156101b857600080fd5b5061027c600480360360408110156101cf57600080fd5b8101908080359060200190929190803590602001906401000000008111156101f657600080fd5b82018360208201111561020857600080fd5b8035906020019184600183028401116401000000008311171561022a57600080fd5b91908080601f016020809104026020016040519081016040528093929190818152602001838380828437600081840152601f19601f820116905080830192505050505050509192919290505050610c39565b005b34801561028a57600080fd5b506103e5600480360360608110156102a157600080fd5b8101908080359060200190929190803590602001906401000000008111156102c857600080fd5b8201836020820111156102da57600080fd5b803590602001918460018302840111640100000000831117156102fc57600080fd5b91908080601f016020809104026020016040519081016040528093929190818152602001838380828437600081840152601f19601f8201169050808301925050505050505091929192908035906020019064010000000081111561035f57600080fd5b82018360208201111561037157600080fd5b8035906020019184600183028401116401000000008311171561039357600080fd5b91908080601f016020809104026020016040519081016040528093929190818152602001838380828437600081840152601f19601f820116905080830192505050505050509192919290505050610c7c565b005b3480156103f357600080fd5b506104b76004803603604081101561040a57600080fd5b81019080803590602001909291908035906020019064010000000081111561043157600080fd5b82018360208201111561044357600080fd5b8035906020019184600183028401116401000000008311171561046557600080fd5b91908080601f016020809104026020016040519081016040528093929190818152602001838380828437600081840152601f19601f820116905080830192505050505050509192919290505050610c9f565b005b3480156104c557600080fd5b506104ce61104a565b6040518082815260200191505060405180910390f35b61059a600480360360208110156104fa57600080fd5b810190808035906020019064010000000081111561051757600080fd5b82018360208201111561052957600080fd5b8035906020019184602083028401116401000000008311171561054b57600080fd5b919080806020026020016040519081016040528093929190818152602001838360200280828437600081840152601f19601f82011690508083019250505050505050919291929050505061105c565b005b3480156105a857600080fd5b506105b16118e4565b6040518082815260200191505060405180910390f35b3480156105d357600080fd5b506105dc61192b565b005b3480156105ea57600080fd5b506105f3611984565b604051808215151515815260200191505060405180910390f35b34801561061957600080fd5b50610622611997565b6040518082815260200191505060405180910390f35b34801561064457600080fd5b5061064d61199d565b604051808273ffffffffffffffffffffffffffffffffffffffff1673ffffffffffffffffffffffffffffffffffffffff16815260200191505060405180910390f35b6106976119c3565b005b3480156106a557600080fd5b506106d2600480360360208110156106bc57600080fd5b8101908080359060200190929190505050611aab565b604051808273ffffffffffffffffffffffffffffffffffffffff1673ffffffffffffffffffffffffffffffffffffffff16815260200191505060405180910390f35b34801561072057600080fd5b50610729611ade565b005b6107576004803603602081101561074157600080fd5b8101908080359060200190929190505050611cb4565b005b610761612428565b005b34801561076f57600080fd5b506107b26004803603602081101561078657600080fd5b81019080803573ffffffffffffffffffffffffffffffffffffffff169060200190929190505050612514565b604051808573ffffffffffffffffffffffffffffffffffffffff1673ffffffffffffffffffffffffffffffffffffffff16815260200184815260200183815260200182815260200194505050505060405180910390f35b6108356004803603602081101561081f57600080fd5b8101908080359060200190929190505050612564565b005b34600854116108ae576040517f08c379a000000000000000000000000000000000000000000000000000000000815260040180806020018281038252601a8152602001807f576520646f6e2774206861766520656e6f7567682066756e647300000000000081525060200191505060405180910390fd5b6000801515600960149054906101000a900460ff16151514156108da576108d3612963565b90506108fa565b6000600960146101000a81548160ff021916908315150217905550600090505b6000809050600061091082600162030d406129ac565b90507f94f2559b5e2b297de3db1587daf2352e872ada3dad01dab9ee3733592fa22ed3604051808060200182810382526026815260200180614f626026913960400191505060405180910390a1807fa19bd41ab5283f5176273e63c8e89f19b8ec4a5c787a6604f651632c71e0f29c33604051808273ffffffffffffffffffffffffffffffffffffffff1673ffffffffffffffffffffffffffffffffffffffff16815260200191505060405180910390a26000600242816109cd57fe5b06905084811415610aa05760023402600560003373ffffffffffffffffffffffffffffffffffffffff1673ffffffffffffffffffffffffffffffffffffffff16815260200190815260200160002081905550817f04cab3657f64d71f15c1887100165dadd28bc26d3a77255585ac5e9f7dedab0d600234026040518080602001838152602001828103825260068152602001807f57696e6e657200000000000000000000000000000000000000000000000000008152506020019250505060405180910390a2610a9b611ade565b610b12565b817f04cab3657f64d71f15c1887100165dadd28bc26d3a77255585ac5e9f7dedab0d346040518080602001838152602001828103825260058152602001807f4c6f7365720000000000000000000000000000000000000000000000000000008152506020019250505060405180910390a25b610b1a614e1c565b33816000019073ffffffffffffffffffffffffffffffffffffffff16908173ffffffffffffffffffffffffffffffffffffffff16815250503481602001818152505085816040018181525050600081606001818152505080600660003373ffffffffffffffffffffffffffffffffffffffff1673ffffffffffffffffffffffffffffffffffffffff16815260200190815260200160002060008201518160000160006101000a81548173ffffffffffffffffffffffffffffffffffffffff021916908373ffffffffffffffffffffffffffffffffffffffff160217905550602082015181600101556040820151816002015560608201518160030155905050505050505050565b60056020528060005260406000206000915090505481565b610c78828260006040519080825280601f01601f191660200182016040528015610c725781602001600182028038833980820191505090505b50610c7c565b5050565b6000801b600360008060001b815260200190815260200160002081905550505050565b610ca7612f47565b73ffffffffffffffffffffffffffffffffffffffff163373ffffffffffffffffffffffffffffffffffffffff1614610cde57600080fd5b6000610d5f826040516020018082805190602001908083835b60208310610d1a5780518252602082019150602081019050602083039250610cf7565b6001836020036101000a0380198251168184511680821785525050505050509050019150506040516020818303038152906040528051906020012060001c6002613264565b905060006007600085815260200190815260200160002060009054906101000a900473ffffffffffffffffffffffffffffffffffffffff169050610da1614e1c565b600660008373ffffffffffffffffffffffffffffffffffffffff1673ffffffffffffffffffffffffffffffffffffffff1681526020019081526020016000206040518060800160405290816000820160009054906101000a900473ffffffffffffffffffffffffffffffffffffffff1673ffffffffffffffffffffffffffffffffffffffff1673ffffffffffffffffffffffffffffffffffffffff168152602001600182015481526020016002820154815260200160038201548152505090508060400151831415610faa576000610e8b610e81836020015160026132ee565b8360600151613374565b9050610e9d6008548360200151613374565b600881905550610eec600560008573ffffffffffffffffffffffffffffffffffffffff1673ffffffffffffffffffffffffffffffffffffffff16815260200190815260200160002054826133fd565b600560008573ffffffffffffffffffffffffffffffffffffffff1673ffffffffffffffffffffffffffffffffffffffff16815260200190815260200160002081905550857f04cab3657f64d71f15c1887100165dadd28bc26d3a77255585ac5e9f7dedab0d83602001516040518080602001838152602001828103825260068152602001807f57696e6e657200000000000000000000000000000000000000000000000000008152506020019250505060405180910390a250611043565b610fc7600854610fc283602001518460600151613374565b6133fd565b600881905550847f04cab3657f64d71f15c1887100165dadd28bc26d3a77255585ac5e9f7dedab0d82602001516040518080602001838152602001828103825260058152602001807f4c6f7365720000000000000000000000000000000000000000000000000000008152506020019250505060405180910390a25b5050505050565b60006002428161105657fe5b06905090565b34600854116110d3576040517f08c379a000000000000000000000000000000000000000000000000000000000815260040180806020018281038252601a8152602001807f576520646f6e2774206861766520656e6f7567682066756e647300000000000081525060200191505060405180910390fd5b600681511061114a576040517f08c379a000000000000000000000000000000000000000000000000000000000815260040180806020018281038252600a8152602001807f43616e277420506c61790000000000000000000000000000000000000000000081525060200191505060405180910390fd5b6000801515600960149054906101000a900460ff16151514156111765761116f612963565b9050611196565b6000600960146101000a81548160ff021916908315150217905550600090505b600080905060006111ac82600162030d406129ac565b90507f94f2559b5e2b297de3db1587daf2352e872ada3dad01dab9ee3733592fa22ed3604051808060200182810382526026815260200180614f626026913960400191505060405180910390a1807fa19bd41ab5283f5176273e63c8e89f19b8ec4a5c787a6604f651632c71e0f29c33604051808273ffffffffffffffffffffffffffffffffffffffff1673ffffffffffffffffffffffffffffffffffffffff16815260200191505060405180910390a260006006428161126957fe5b06905060005b855181116117de5785818151811061128357fe5b60200260200101518214156117d15760018651141561139f57606461024d3402816112aa57fe5b04600560003373ffffffffffffffffffffffffffffffffffffffff1673ffffffffffffffffffffffffffffffffffffffff16815260200190815260200160002081905550827f04cab3657f64d71f15c1887100165dadd28bc26d3a77255585ac5e9f7dedab0d600560003373ffffffffffffffffffffffffffffffffffffffff1673ffffffffffffffffffffffffffffffffffffffff168152602001908152602001600020546040518080602001838152602001828103825260068152602001807f57696e6e657200000000000000000000000000000000000000000000000000008152506020019250505060405180910390a25b6002865114156114ac5760646101253402816113b757fe5b04600560003373ffffffffffffffffffffffffffffffffffffffff1673ffffffffffffffffffffffffffffffffffffffff16815260200190815260200160002081905550827f04cab3657f64d71f15c1887100165dadd28bc26d3a77255585ac5e9f7dedab0d600560003373ffffffffffffffffffffffffffffffffffffffff1673ffffffffffffffffffffffffffffffffffffffff168152602001908152602001600020546040518080602001838152602001828103825260068152602001807f57696e6e657200000000000000000000000000000000000000000000000000008152506020019250505060405180910390a25b6003865114156115b857606460c33402816114c357fe5b04600560003373ffffffffffffffffffffffffffffffffffffffff1673ffffffffffffffffffffffffffffffffffffffff16815260200190815260200160002081905550827f04cab3657f64d71f15c1887100165dadd28bc26d3a77255585ac5e9f7dedab0d600560003373ffffffffffffffffffffffffffffffffffffffff1673ffffffffffffffffffffffffffffffffffffffff168152602001908152602001600020546040518080602001838152602001828103825260068152602001807f57696e6e657200000000000000000000000000000000000000000000000000008152506020019250505060405180910390a25b6004865114156116c4576064608e3402816115cf57fe5b04600560003373ffffffffffffffffffffffffffffffffffffffff1673ffffffffffffffffffffffffffffffffffffffff16815260200190815260200160002081905550827f04cab3657f64d71f15c1887100165dadd28bc26d3a77255585ac5e9f7dedab0d600560003373ffffffffffffffffffffffffffffffffffffffff1673ffffffffffffffffffffffffffffffffffffffff168152602001908152602001600020546040518080602001838152602001828103825260068152602001807f57696e6e657200000000000000000000000000000000000000000000000000008152506020019250505060405180910390a25b6005865114156117d0576064606b3402816116db57fe5b04600560003373ffffffffffffffffffffffffffffffffffffffff1673ffffffffffffffffffffffffffffffffffffffff16815260200190815260200160002081905550827f04cab3657f64d71f15c1887100165dadd28bc26d3a77255585ac5e9f7dedab0d600560003373ffffffffffffffffffffffffffffffffffffffff1673ffffffffffffffffffffffffffffffffffffffff168152602001908152602001600020546040518080602001838152602001828103825260068152602001807f57696e6e657200000000000000000000000000000000000000000000000000008152506020019250505060405180910390a25b5b808060010191505061126f565b506117e7614e1c565b33816000019073ffffffffffffffffffffffffffffffffffffffff16908173ffffffffffffffffffffffffffffffffffffffff168152505034816020018181525050600081606001818152505080600660003373ffffffffffffffffffffffffffffffffffffffff1673ffffffffffffffffffffffffffffffffffffffff16815260200190815260200160002060008201518160000160006101000a81548173ffffffffffffffffffffffffffffffffffffffff021916908373ffffffffffffffffffffffffffffffffffffffff160217905550602082015181600101556040820151816002015560608201518160030155905050505050505050565b6000600560003373ffffffffffffffffffffffffffffffffffffffff1673ffffffffffffffffffffffffffffffffffffffff16815260200190815260200160002054905090565b6000600854905060006008819055503373ffffffffffffffffffffffffffffffffffffffff166108fc829081150290604051600060405180830381858888f19350505050158015611980573d6000803e3d6000fd5b5050565b600960149054906101000a900460ff1681565b60085481565b600960009054906101000a900473ffffffffffffffffffffffffffffffffffffffff1681565b600960009054906101000a900473ffffffffffffffffffffffffffffffffffffffff1673ffffffffffffffffffffffffffffffffffffffff163373ffffffffffffffffffffffffffffffffffffffff1614611a1d57600080fd5b611a66600560003373ffffffffffffffffffffffffffffffffffffffff1673ffffffffffffffffffffffffffffffffffffffff16815260200190815260200160002054346133fd565b600560003373ffffffffffffffffffffffffffffffffffffffff1673ffffffffffffffffffffffffffffffffffffffff16815260200190815260200160002081905550565b60076020528060005260406000206000915054906101000a900473ffffffffffffffffffffffffffffffffffffffff1681565b6000600560003373ffffffffffffffffffffffffffffffffffffffff1673ffffffffffffffffffffffffffffffffffffffff1681526020019081526020016000205411611b93576040517f08c379a00000000000000000000000000000000000000000000000000000000081526004018080602001828103825260148152602001807f4e6f2066756e647320746f20776974686472617700000000000000000000000081525060200191505060405180910390fd5b6000600560003373ffffffffffffffffffffffffffffffffffffffff1673ffffffffffffffffffffffffffffffffffffffff1681526020019081526020016000205490506000600560003373ffffffffffffffffffffffffffffffffffffffff1673ffffffffffffffffffffffffffffffffffffffff168152602001908152602001600020819055503373ffffffffffffffffffffffffffffffffffffffff166108fc829081150290604051600060405180830381858888f19350505050158015611c62573d6000803e3d6000fd5b503373ffffffffffffffffffffffffffffffffffffffff167f42b2a4ad2d4bdf57e819ccd3c6ce6d0a8d6d20b5d3dbf94ef2b05c42f523c610826040518082815260200191505060405180910390a250565b3460085411611d2b576040517f08c379a000000000000000000000000000000000000000000000000000000000815260040180806020018281038252601a8152602001807f576520646f6e2774206861766520656e6f7567682066756e647300000000000081525060200191505060405180910390fd5b6000801515600960149054906101000a900460ff1615151415611d5757611d50612963565b9050611d77565b6000600960146101000a81548160ff021916908315150217905550600090505b60008090506000611d8d82600162030d406129ac565b90507f94f2559b5e2b297de3db1587daf2352e872ada3dad01dab9ee3733592fa22ed3604051808060200182810382526026815260200180614f626026913960400191505060405180910390a1807fa19bd41ab5283f5176273e63c8e89f19b8ec4a5c787a6604f651632c71e0f29c33604051808273ffffffffffffffffffffffffffffffffffffffff1673ffffffffffffffffffffffffffffffffffffffff16815260200191505060405180910390a2600060064281611e4a57fe5b0690506001811415611f1d57606461024d340281611e6457fe5b04600560003373ffffffffffffffffffffffffffffffffffffffff1673ffffffffffffffffffffffffffffffffffffffff16815260200190815260200160002081905550817f04cab3657f64d71f15c1887100165dadd28bc26d3a77255585ac5e9f7dedab0d600234026040518080602001838152602001828103825260068152602001807f57696e6e657200000000000000000000000000000000000000000000000000008152506020019250505060405180910390a25b6002811415611fed576064610125340281611f3457fe5b04600560003373ffffffffffffffffffffffffffffffffffffffff1673ffffffffffffffffffffffffffffffffffffffff16815260200190815260200160002081905550817f04cab3657f64d71f15c1887100165dadd28bc26d3a77255585ac5e9f7dedab0d600234026040518080602001838152602001828103825260068152602001807f57696e6e657200000000000000000000000000000000000000000000000000008152506020019250505060405180910390a25b60038114156120bc57606460c334028161200357fe5b04600560003373ffffffffffffffffffffffffffffffffffffffff1673ffffffffffffffffffffffffffffffffffffffff16815260200190815260200160002081905550817f04cab3657f64d71f15c1887100165dadd28bc26d3a77255585ac5e9f7dedab0d600234026040518080602001838152602001828103825260068152602001807f57696e6e657200000000000000000000000000000000000000000000000000008152506020019250505060405180910390a25b600481141561218b576064608e3402816120d257fe5b04600560003373ffffffffffffffffffffffffffffffffffffffff1673ffffffffffffffffffffffffffffffffffffffff16815260200190815260200160002081905550817f04cab3657f64d71f15c1887100165dadd28bc26d3a77255585ac5e9f7dedab0d600234026040518080602001838152602001828103825260068152602001807f57696e6e657200000000000000000000000000000000000000000000000000008152506020019250505060405180910390a25b600581141561225a576064606b3402816121a157fe5b04600560003373ffffffffffffffffffffffffffffffffffffffff1673ffffffffffffffffffffffffffffffffffffffff16815260200190815260200160002081905550817f04cab3657f64d71f15c1887100165dadd28bc26d3a77255585ac5e9f7dedab0d600234026040518080602001838152602001828103825260068152602001807f57696e6e657200000000000000000000000000000000000000000000000000008152506020019250505060405180910390a25b60068110612319576000600560003373ffffffffffffffffffffffffffffffffffffffff1673ffffffffffffffffffffffffffffffffffffffff16815260200190815260200160002081905550817f04cab3657f64d71f15c1887100165dadd28bc26d3a77255585ac5e9f7dedab0d346040518080602001838152602001828103825260058152602001807f4c6f7365720000000000000000000000000000000000000000000000000000008152506020019250505060405180910390a25b612321614e1c565b33816000019073ffffffffffffffffffffffffffffffffffffffff16908173ffffffffffffffffffffffffffffffffffffffff16815250503481602001818152505085816040018181525050600081606001818152505080600660003373ffffffffffffffffffffffffffffffffffffffff1673ffffffffffffffffffffffffffffffffffffffff16815260200190815260200160002060008201518160000160006101000a81548173ffffffffffffffffffffffffffffffffffffffff021916908373ffffffffffffffffffffffffffffffffffffffff160217905550602082015181600101556040820151816002015560608201518160030155905050505050505050565b600960009054906101000a900473ffffffffffffffffffffffffffffffffffffffff1673ffffffffffffffffffffffffffffffffffffffff163373ffffffffffffffffffffffffffffffffffffffff161461248257600080fd5b670de0b6b3a7640000341015612500576040517f08c379a000000000000000000000000000000000000000000000000000000000815260040180806020018281038252601b8152602001807f506c6561736520616464206174206c656173742031206574686572000000000081525060200191505060405180910390fd5b61250c600854346133fd565b600881905550565b60066020528060005260406000206000915090508060000160009054906101000a900473ffffffffffffffffffffffffffffffffffffffff16908060010154908060020154908060030154905084565b34600854116125db576040517f08c379a000000000000000000000000000000000000000000000000000000000815260040180806020018281038252601a8152602001807f576520646f6e2774206861766520656e6f7567682066756e647300000000000081525060200191505060405180910390fd5b6000801515600960149054906101000a900460ff161515141561260757612600612963565b9050612627565b6000600960146101000a81548160ff021916908315150217905550600090505b6000809050600061263d82600162030d406129ac565b90507f94f2559b5e2b297de3db1587daf2352e872ada3dad01dab9ee3733592fa22ed3604051808060200182810382526026815260200180614f626026913960400191505060405180910390a1807fa19bd41ab5283f5176273e63c8e89f19b8ec4a5c787a6604f651632c71e0f29c33604051808273ffffffffffffffffffffffffffffffffffffffff1673ffffffffffffffffffffffffffffffffffffffff16815260200191505060405180910390a26000606442816126fa57fe5b0690508085116127e257600034600187036001880360640334028161271b57fe5b0401905080600560003373ffffffffffffffffffffffffffffffffffffffff1673ffffffffffffffffffffffffffffffffffffffff16815260200190815260200160002081905550827f04cab3657f64d71f15c1887100165dadd28bc26d3a77255585ac5e9f7dedab0d826040518080602001838152602001828103825260068152602001807f57696e6e657200000000000000000000000000000000000000000000000000008152506020019250505060405180910390a26127dc611ade565b50612854565b817f04cab3657f64d71f15c1887100165dadd28bc26d3a77255585ac5e9f7dedab0d346040518080602001838152602001828103825260058152602001807f4c6f7365720000000000000000000000000000000000000000000000000000008152506020019250505060405180910390a25b61285c614e1c565b33816000019073ffffffffffffffffffffffffffffffffffffffff16908173ffffffffffffffffffffffffffffffffffffffff16815250503481602001818152505085816040018181525050600081606001818152505080600660003373ffffffffffffffffffffffffffffffffffffffff1673ffffffffffffffffffffffffffffffffffffffff16815260200190815260200160002060008201518160000160006101000a81548173ffffffffffffffffffffffffffffffffffffffff021916908373ffffffffffffffffffffffffffffffffffffffff160217905550602082015181600101556040820151816002015560608201518160030155905050505050505050565b60006129a76040518060400160405280600581526020017f707269636500000000000000000000000000000000000000000000000000000081525062030d40613485565b905090565b600080831180156129be575060208311155b6129c757600080fd5b600a84029350606060016040519080825280601f01601f191660200182016040528015612a035781602001600182028038833980820191505090505b5090508360f81b81600081518110612a1757fe5b60200101907effffffffffffffffffffffffffffffffffffffffffffffffffffffffffffff1916908160001a905350606060206040519080825280601f01601f191660200182016040528015612a7c5781602001600182028038833980820191505090505b509050606060206040519080825280601f01601f191660200182016040528015612ab55781602001600182028038833980820191505090505b5090506000612ac261381f565b905060208352424118600143034018602084015260208252806020830152606060206040519080825280601f01601f191660200182016040528015612b165781602001600182028038833980820191505090505b509050886020820152606060086040519080825280601f01601f191660200182016040528015612b555781602001600182028038833980820191505090505b509050612b688260186008846000613b3c565b50612b71614e5a565b60405180608001604052808781526020018881526020018681526020018481525090506000612bd66040518060400160405280600681526020017f72616e646f6d0000000000000000000000000000000000000000000000000000815250838c613b9b565b9050606060086040519080825280601f01601f191660200182016040528015612c0e5781602001600182028038833980820191505090505b50905060208401517f0100000000000000000000000000000000000000000000000000000000000000810460278301537e01000000000000000000000000000000000000000000000000000000000000810460268301537d010000000000000000000000000000000000000000000000000000000000810460258301537c0100000000000000000000000000000000000000000000000000000000810460248301537b01000000000000000000000000000000000000000000000000000000810460238301537a010000000000000000000000000000000000000000000000000000810460228301537901000000000000000000000000000000000000000000000000008104602183015378010000000000000000000000000000000000000000000000008104602083015350612f34828285600160048110612d4d57fe5b6020020151600287600060048110612d6157fe5b60200201516040518082805190602001908083835b60208310612d995780518252602082019150602081019050602083039250612d76565b6001836020036101000a038019825116818451168082178552505050505050905001915050602060405180830381855afa158015612ddb573d6000803e3d6000fd5b5050506040513d6020811015612df057600080fd5b810190808051906020019092919050505087600260048110612e0e57fe5b60200201516040516020018085805190602001908083835b60208310612e495780518252602082019150602081019050602083039250612e26565b6001836020036101000a03801982511681845116808217855250505050505090500184805190602001908083835b60208310612e9a5780518252602082019150602081019050602083039250612e77565b6001836020036101000a03801982511681845116808217855250505050505090500183815260200182805190602001908083835b60208310612ef15780518252602082019150602081019050602083039250612ece565b6001836020036101000a03801982511681845116808217855250505050505090500194505050505060405160208183030381529060405280519060200120613f08565b8199505050505050505050509392505050565b60008073ffffffffffffffffffffffffffffffffffffffff16600160009054906101000a900473ffffffffffffffffffffffffffffffffffffffff1673ffffffffffffffffffffffffffffffffffffffff161480612fcf57506000612fcd600160009054906101000a900473ffffffffffffffffffffffffffffffffffffffff16613f24565b145b15612fe057612fde6000613f2f565b505b600160009054906101000a900473ffffffffffffffffffffffffffffffffffffffff1673ffffffffffffffffffffffffffffffffffffffff166338cc48316040518163ffffffff1660e01b8152600401602060405180830381600087803b15801561304a57600080fd5b505af115801561305e573d6000803e3d6000fd5b505050506040513d602081101561307457600080fd5b810190808051906020019092919050505073ffffffffffffffffffffffffffffffffffffffff166000809054906101000a900473ffffffffffffffffffffffffffffffffffffffff1673ffffffffffffffffffffffffffffffffffffffff16146131bd57600160009054906101000a900473ffffffffffffffffffffffffffffffffffffffff1673ffffffffffffffffffffffffffffffffffffffff166338cc48316040518163ffffffff1660e01b8152600401602060405180830381600087803b15801561314257600080fd5b505af1158015613156573d6000803e3d6000fd5b505050506040513d602081101561316c57600080fd5b81019080805190602001909291905050506000806101000a81548173ffffffffffffffffffffffffffffffffffffffff021916908373ffffffffffffffffffffffffffffffffffffffff1602179055505b6000809054906101000a900473ffffffffffffffffffffffffffffffffffffffff1673ffffffffffffffffffffffffffffffffffffffff1663c281d19e6040518163ffffffff1660e01b815260040160206040518083038186803b15801561322457600080fd5b505afa158015613238573d6000803e3d6000fd5b505050506040513d602081101561324e57600080fd5b8101908080519060200190929190505050905090565b6000808214156132dc576040517f08c379a00000000000000000000000000000000000000000000000000000000081526004018080602001828103825260188152602001807f536166654d6174683a206d6f64756c6f206279207a65726f000000000000000081525060200191505060405180910390fd5b8183816132e557fe5b06905092915050565b600080831415613301576000905061336e565b600082840290508284828161331257fe5b0414613369576040517f08c379a0000000000000000000000000000000000000000000000000000000008152600401808060200182810382526021815260200180614f416021913960400191505060405180910390fd5b809150505b92915050565b6000828211156133ec576040517f08c379a000000000000000000000000000000000000000000000000000000000815260040180806020018281038252601e8152602001807f536166654d6174683a207375627472616374696f6e206f766572666c6f77000081525060200191505060405180910390fd5b600082840390508091505092915050565b60008082840190508381101561347b576040517f08c379a000000000000000000000000000000000000000000000000000000000815260040180806020018281038252601b8152602001807f536166654d6174683a206164646974696f6e206f766572666c6f77000000000081525060200191505060405180910390fd5b8091505092915050565b60008073ffffffffffffffffffffffffffffffffffffffff16600160009054906101000a900473ffffffffffffffffffffffffffffffffffffffff1673ffffffffffffffffffffffffffffffffffffffff16148061350d5750600061350b600160009054906101000a900473ffffffffffffffffffffffffffffffffffffffff16613f24565b145b1561351e5761351c6000613f2f565b505b600160009054906101000a900473ffffffffffffffffffffffffffffffffffffffff1673ffffffffffffffffffffffffffffffffffffffff166338cc48316040518163ffffffff1660e01b8152600401602060405180830381600087803b15801561358857600080fd5b505af115801561359c573d6000803e3d6000fd5b505050506040513d60208110156135b257600080fd5b810190808051906020019092919050505073ffffffffffffffffffffffffffffffffffffffff166000809054906101000a900473ffffffffffffffffffffffffffffffffffffffff1673ffffffffffffffffffffffffffffffffffffffff16146136fb57600160009054906101000a900473ffffffffffffffffffffffffffffffffffffffff1673ffffffffffffffffffffffffffffffffffffffff166338cc48316040518163ffffffff1660e01b8152600401602060405180830381600087803b15801561368057600080fd5b505af1158015613694573d6000803e3d6000fd5b505050506040513d60208110156136aa57600080fd5b81019080805190602001909291905050506000806101000a81548173ffffffffffffffffffffffffffffffffffffffff021916908373ffffffffffffffffffffffffffffffffffffffff1602179055505b6000809054906101000a900473ffffffffffffffffffffffffffffffffffffffff1673ffffffffffffffffffffffffffffffffffffffff16632ef3accc84846040518363ffffffff1660e01b81526004018080602001838152602001828103825284818151815260200191508051906020019080838360005b8381101561378f578082015181840152602081019050613774565b50505050905090810190601f1680156137bc5780820380516001836020036101000a031916815260200191505b509350505050602060405180830381600087803b1580156137dc57600080fd5b505af11580156137f0573d6000803e3d6000fd5b505050506040513d602081101561380657600080fd5b8101908080519060200190929190505050905092915050565b60008073ffffffffffffffffffffffffffffffffffffffff16600160009054906101000a900473ffffffffffffffffffffffffffffffffffffffff1673ffffffffffffffffffffffffffffffffffffffff1614806138a7575060006138a5600160009054906101000a900473ffffffffffffffffffffffffffffffffffffffff16613f24565b145b156138b8576138b66000613f2f565b505b600160009054906101000a900473ffffffffffffffffffffffffffffffffffffffff1673ffffffffffffffffffffffffffffffffffffffff166338cc48316040518163ffffffff1660e01b8152600401602060405180830381600087803b15801561392257600080fd5b505af1158015613936573d6000803e3d6000fd5b505050506040513d602081101561394c57600080fd5b810190808051906020019092919050505073ffffffffffffffffffffffffffffffffffffffff166000809054906101000a900473ffffffffffffffffffffffffffffffffffffffff1673ffffffffffffffffffffffffffffffffffffffff1614613a9557600160009054906101000a900473ffffffffffffffffffffffffffffffffffffffff1673ffffffffffffffffffffffffffffffffffffffff166338cc48316040518163ffffffff1660e01b8152600401602060405180830381600087803b158015613a1a57600080fd5b505af1158015613a2e573d6000803e3d6000fd5b505050506040513d6020811015613a4457600080fd5b81019080805190602001909291905050506000806101000a81548173ffffffffffffffffffffffffffffffffffffffff021916908373ffffffffffffffffffffffffffffffffffffffff1602179055505b6000809054906101000a900473ffffffffffffffffffffffffffffffffffffffff1673ffffffffffffffffffffffffffffffffffffffff1663abaa5f3e6040518163ffffffff1660e01b815260040160206040518083038186803b158015613afc57600080fd5b505afa158015613b10573d6000803e3d6000fd5b505050506040513d6020811015613b2657600080fd5b8101908080519060200190929190505050905090565b6060600082850190508084511015613b5357600080fd5b600086602001905060008460200190505b868860200101821015613b8c5781890151808288015250602082019150602081019050613b64565b85935050505095945050505050565b60008073ffffffffffffffffffffffffffffffffffffffff16600160009054906101000a900473ffffffffffffffffffffffffffffffffffffffff1673ffffffffffffffffffffffffffffffffffffffff161480613c2357506000613c21600160009054906101000a900473ffffffffffffffffffffffffffffffffffffffff16613f24565b145b15613c3457613c326000613f2f565b505b600160009054906101000a900473ffffffffffffffffffffffffffffffffffffffff1673ffffffffffffffffffffffffffffffffffffffff166338cc48316040518163ffffffff1660e01b8152600401602060405180830381600087803b158015613c9e57600080fd5b505af1158015613cb2573d6000803e3d6000fd5b505050506040513d6020811015613cc857600080fd5b810190808051906020019092919050505073ffffffffffffffffffffffffffffffffffffffff166000809054906101000a900473ffffffffffffffffffffffffffffffffffffffff1673ffffffffffffffffffffffffffffffffffffffff1614613e1157600160009054906101000a900473ffffffffffffffffffffffffffffffffffffffff1673ffffffffffffffffffffffffffffffffffffffff166338cc48316040518163ffffffff1660e01b8152600401602060405180830381600087803b158015613d9657600080fd5b505af1158015613daa573d6000803e3d6000fd5b505050506040513d6020811015613dc057600080fd5b81019080805190602001909291905050506000806101000a81548173ffffffffffffffffffffffffffffffffffffffff021916908373ffffffffffffffffffffffffffffffffffffffff1602179055505b60606004604051908082528060200260200182016040528015613e4857816020015b6060815260200190600190039081613e335790505b50905083600060048110613e5857fe5b602002015181600081518110613e6a57fe5b602002602001018190525083600160048110613e8257fe5b602002015181600181518110613e9457fe5b602002602001018190525083600260048110613eac57fe5b602002015181600281518110613ebe57fe5b602002602001018190525083600360048110613ed657fe5b602002015181600381518110613ee857fe5b6020026020010181905250613efe858285613f40565b9150509392505050565b8060036000848152602001908152602001600020819055505050565b6000813b9050919050565b6000613f396144a2565b9050919050565b60008073ffffffffffffffffffffffffffffffffffffffff16600160009054906101000a900473ffffffffffffffffffffffffffffffffffffffff1673ffffffffffffffffffffffffffffffffffffffff161480613fc857506000613fc6600160009054906101000a900473ffffffffffffffffffffffffffffffffffffffff16613f24565b145b15613fd957613fd76000613f2f565b505b600160009054906101000a900473ffffffffffffffffffffffffffffffffffffffff1673ffffffffffffffffffffffffffffffffffffffff166338cc48316040518163ffffffff1660e01b8152600401602060405180830381600087803b15801561404357600080fd5b505af1158015614057573d6000803e3d6000fd5b505050506040513d602081101561406d57600080fd5b810190808051906020019092919050505073ffffffffffffffffffffffffffffffffffffffff166000809054906101000a900473ffffffffffffffffffffffffffffffffffffffff1673ffffffffffffffffffffffffffffffffffffffff16146141b657600160009054906101000a900473ffffffffffffffffffffffffffffffffffffffff1673ffffffffffffffffffffffffffffffffffffffff166338cc48316040518163ffffffff1660e01b8152600401602060405180830381600087803b15801561413b57600080fd5b505af115801561414f573d6000803e3d6000fd5b505050506040513d602081101561416557600080fd5b81019080805190602001909291905050506000806101000a81548173ffffffffffffffffffffffffffffffffffffffff021916908373ffffffffffffffffffffffffffffffffffffffff1602179055505b60008060009054906101000a900473ffffffffffffffffffffffffffffffffffffffff1673ffffffffffffffffffffffffffffffffffffffff16632ef3accc86856040518363ffffffff1660e01b81526004018080602001838152602001828103825284818151815260200191508051906020019080838360005b8381101561424c578082015181840152602081019050614231565b50505050905090810190601f1680156142795780820380516001836020036101000a031916815260200191505b509350505050602060405180830381600087803b15801561429957600080fd5b505af11580156142ad573d6000803e3d6000fd5b505050506040513d60208110156142c357600080fd5b81019080805190602001909291905050509050823a02670de0b6b3a7640000018111156142f6576000801b91505061449b565b6060614301856149f9565b90506000809054906101000a900473ffffffffffffffffffffffffffffffffffffffff1673ffffffffffffffffffffffffffffffffffffffff1663c55c1cb68360008985896040518663ffffffff1660e01b8152600401808581526020018060200180602001848152602001838103835286818151815260200191508051906020019080838360005b838110156143a557808201518184015260208101905061438a565b50505050905090810190601f1680156143d25780820380516001836020036101000a031916815260200191505b50838103825285818151815260200191508051906020019080838360005b8381101561440b5780820151818401526020810190506143f0565b50505050905090810190601f1680156144385780820380516001836020036101000a031916815260200191505b5096505050505050506020604051808303818588803b15801561445a57600080fd5b505af115801561446e573d6000803e3d6000fd5b50505050506040513d602081101561448557600080fd5b8101908080519060200190929190505050925050505b9392505050565b6000806144c2731d3b2638a7cc9f2cb3d298a3da7a90b67e5506ed613f24565b111561456457731d3b2638a7cc9f2cb3d298a3da7a90b67e5506ed600160006101000a81548173ffffffffffffffffffffffffffffffffffffffff021916908373ffffffffffffffffffffffffffffffffffffffff16021790555061455b6040518060400160405280600b81526020017f6574685f6d61696e6e6574000000000000000000000000000000000000000000815250614a79565b600190506149f6565b600061458373c03a2615d5efaf5f49f60b7bb6583eaec212fdf1613f24565b11156146255773c03a2615d5efaf5f49f60b7bb6583eaec212fdf1600160006101000a81548173ffffffffffffffffffffffffffffffffffffffff021916908373ffffffffffffffffffffffffffffffffffffffff16021790555061461c6040518060400160405280600c81526020017f6574685f726f707374656e330000000000000000000000000000000000000000815250614a79565b600190506149f6565b600061464473b7a07bcf2ba2f2703b24c0691b5278999c59ac7e613f24565b11156146e65773b7a07bcf2ba2f2703b24c0691b5278999c59ac7e600160006101000a81548173ffffffffffffffffffffffffffffffffffffffff021916908373ffffffffffffffffffffffffffffffffffffffff1602179055506146dd6040518060400160405280600981526020017f6574685f6b6f76616e0000000000000000000000000000000000000000000000815250614a79565b600190506149f6565b600061470573146500cfd35b22e4a392fe0adc06de1a1368ed48613f24565b11156147a75773146500cfd35b22e4a392fe0adc06de1a1368ed48600160006101000a81548173ffffffffffffffffffffffffffffffffffffffff021916908373ffffffffffffffffffffffffffffffffffffffff16021790555061479e6040518060400160405280600b81526020017f6574685f72696e6b656279000000000000000000000000000000000000000000815250614a79565b600190506149f6565b60006147c673a2998efd205fb9d4b4963afb70778d6354ad3a41613f24565b11156148685773a2998efd205fb9d4b4963afb70778d6354ad3a41600160006101000a81548173ffffffffffffffffffffffffffffffffffffffff021916908373ffffffffffffffffffffffffffffffffffffffff16021790555061485f6040518060400160405280600a81526020017f6574685f676f65726c6900000000000000000000000000000000000000000000815250614a79565b600190506149f6565b6000614887736f485c8bf6fc43ea212e93bbf8ce046c7f1cb475613f24565b11156148eb57736f485c8bf6fc43ea212e93bbf8ce046c7f1cb475600160006101000a81548173ffffffffffffffffffffffffffffffffffffffff021916908373ffffffffffffffffffffffffffffffffffffffff160217905550600190506149f6565b600061490a7320e12a1f859b3feae5fb2a0a32c18f5a65555bbf613f24565b111561496e577320e12a1f859b3feae5fb2a0a32c18f5a65555bbf600160006101000a81548173ffffffffffffffffffffffffffffffffffffffff021916908373ffffffffffffffffffffffffffffffffffffffff160217905550600190506149f6565b600061498d7351efaf4c8b3c9afbd5ab9f4bbc82784ab6ef8faa613f24565b11156149f1577351efaf4c8b3c9afbd5ab9f4bbc82784ab6ef8faa600160006101000a81548173ffffffffffffffffffffffffffffffffffffffff021916908373ffffffffffffffffffffffffffffffffffffffff160217905550600190506149f6565b600090505b90565b6060614a03614a93565b614a0b614e81565b614a1781610400614a9f565b614a2081614ae9565b60008090505b8351811015614a6257614a55848281518110614a3e57fe5b602002602001015183614af790919063ffffffff16565b8080600101915050614a26565b50614a6c81614b1c565b8060000151915050919050565b8060029080519060200190614a8f929190614e9b565b5050565b60405180590338823950565b6000819050600060208281614ab057fe5b0614614ac95760208181614ac057fe5b06602003810190505b808360200181815250506040518084526000815281810160405250505050565b614af4816004614b2a565b50565b614b048260028351614b4b565b614b178183614c8b90919063ffffffff16565b505050565b614b27816007614b2a565b50565b614b47601f60058360ff16901b1783614d3690919063ffffffff16565b5050565b60178111614b7757614b728160058460ff16901b60ff161784614d3690919063ffffffff16565b614c86565b60ff8111614bb857614b9c601860058460ff16901b1784614d3690919063ffffffff16565b614bb281600185614d769092919063ffffffff16565b50614c85565b61ffff8111614bfa57614bde601960058460ff16901b1784614d3690919063ffffffff16565b614bf481600285614d769092919063ffffffff16565b50614c84565b63ffffffff8111614c3e57614c22601a60058460ff16901b1784614d3690919063ffffffff16565b614c3881600485614d769092919063ffffffff16565b50614c83565b67ffffffffffffffff8111614c8257614c6a601b60058460ff16901b1784614d3690919063ffffffff16565b614c8081600885614d769092919063ffffffff16565b505b5b5b5b5b505050565b614c93614e81565b82602001518360000151518351011115614cc357614cc2836002614cbc86602001518651614ddd565b02614df9565b5b60008060008451905085518051602081830101945086518101825260208701935050505b60208110614d0a5781518352602083019250602082019150602081039050614ce7565b60006001826020036101000a039050801983511681855116818117865250508694505050505092915050565b81602001516001836000015151011115614d5c57614d5b826002846020015102614df9565b5b815180516020818301018381536001820183525050505050565b614d7e614e81565b836020015184600001515183011115614dac57614dab846002614da5876020015186614ddd565b02614df9565b5b60006001836101000a0390508451805184818301018684198251161781528582018352505050849150509392505050565b600081831115614def57829050614df3565b8190505b92915050565b606082600001519050614e0c8383614a9f565b614e168382614c8b565b50505050565b6040518060800160405280600073ffffffffffffffffffffffffffffffffffffffff1681526020016000815260200160008152602001600081525090565b60405180608001604052806004905b6060815260200190600190039081614e695790505090565b604051806040016040528060608152602001600081525090565b828054600181600116156101000203166002900490600052602060002090601f016020900481019282601f10614edc57805160ff1916838001178555614f0a565b82800160010185558215614f0a579182015b82811115614f09578251825591602001919060010190614eee565b5b509050614f179190614f1b565b5090565b614f3d91905b80821115614f39576000816000905550600101614f21565b5090565b9056fe536166654d6174683a206d756c7469706c69636174696f6e206f766572666c6f774d6573736167652073656e742e2057616974696e6720666f7220616e20616e737765722e2e2ea265627a7a72315820a2c6ca858886fa1fd48ae264158856724f91884ca5be305d22637b93dcdada5064736f6c63430005100032",
  "source": "pragma solidity =0.5.16;\r\n\r\nimport './provableAPI_0.5.sol';\r\nimport './SafeMath.sol';\r\n\r\ncontract Coinflip is usingProvable {\r\n    using SafeMath for uint;\r\n\r\n    struct Bet {\r\n        address playerAddress;\r\n        uint betValue;\r\n        uint headsTails;\r\n        uint setRandomPrice;\r\n    }\r\n\r\n    mapping(address => uint) public playerWinnings;\r\n    mapping (address => Bet) public waiting;\r\n    mapping (bytes32 => address) public afterWaiting;\r\n\r\n    event logNewProvableQuery(string description);\r\n    event sentQueryId(address caller, bytes32 indexed queryId);\r\n    event callbackReceived(bytes32 indexed queryId, string description, uint256 amount);\r\n    event userWithdrawal(address indexed caller, uint256 amount);\r\n\r\n    uint public contractBalance;\r\n\r\n    uint256 constant GAS_FOR_CALLBACK = 200000;\r\n    uint256 constant NUM_RANDOM_BYTES_REQUESTED = 1;\r\n\r\n    address payable public owner = msg.sender;\r\n\r\n    bool public freeCallback = true;\r\n\r\n    constructor() public payable{\r\n        owner = msg.sender;\r\n        contractBalance = msg.value;\r\n    }\r\n\r\n    modifier onlyOwner() {\r\n        require(msg.sender == owner);\r\n        _;\r\n    }\r\n\r\n    modifier Owner() {\r\n        _;\r\n    }\r\n\r\n    function random() public view returns (uint) {\r\n        return now % 2;\r\n    }\r\n\r\n    function withdrawUserWinnings() public {\r\n        require(playerWinnings[msg.sender] > 0, \"No funds to withdraw\");\r\n        uint toTransfer = playerWinnings[msg.sender];\r\n        playerWinnings[msg.sender] = 0;\r\n        msg.sender.transfer(toTransfer);\r\n        emit userWithdrawal(msg.sender, toTransfer);\r\n    }\r\n\r\n    function callback(bytes32 _queryId, string memory _result) public {\r\n        require(msg.sender == provable_cbAddress());\r\n\r\n        //turn number into 1 or 0\r\n        uint256 flipResult = SafeMath.mod(uint256(keccak256(abi.encodePacked(_result))), 2);\r\n\r\n        //linking new mapping with new struct\r\n        address _player = afterWaiting[_queryId];\r\n\r\n        Bet memory postBet = waiting[_player];\r\n\r\n\r\n        if(flipResult == postBet.headsTails){\r\n            //winner\r\n            uint winAmount = SafeMath.sub(SafeMath.mul(postBet.betValue, 2), postBet.setRandomPrice);\r\n            contractBalance = SafeMath.sub(contractBalance, postBet.betValue);\r\n            playerWinnings[_player] = SafeMath.add(playerWinnings[_player], winAmount);\r\n\r\n            /**\r\n            *         @notice The following commented commands mirror the above commands sans SafeMath for readability.\r\n            *\r\n            *          uint winAmount = (postBet.betValue * 2) - postBet.setRandomPrice;\r\n            *          contractBalance -= postBet.betValue;\r\n            *          playerWinnings[_player] += winAmount;\r\n             */\r\n\r\n            emit callbackReceived(_queryId, \"Winner\", postBet.betValue);\r\n        } else {\r\n            //loser\r\n            contractBalance = SafeMath.add(contractBalance, SafeMath.sub(postBet.betValue, postBet.setRandomPrice));\r\n            /**\r\n            *           @notice For readability--see previous comment.\r\n            *\r\n            *          contractBalance += (postBet.betValue - postBet.setRandomPrice);\r\n             */\r\n            emit callbackReceived(_queryId, \"Loser\", postBet.betValue);\r\n        }\r\n    }\r\n\r\n    /**\r\n     *@notice This function simulates a coin flip which makes a call to the Provable oracle for\r\n     *        a random number.\r\n     *@dev The function first checks if this is the very first call to the Provable oracle in order\r\n     *     for the user to not pay for the first free call. This also adds user values to two different\r\n     *     mappings: 'waiting' and 'afterWaiting.' Both mappings are necessary in order to bridge the\r\n     *     user's address (which we has access to here with msg.sender) and the user's queryId sent from\r\n     *     Provable after the function call.\r\n     *\r\n     *@param oneZero - The numerical value of heads(0) or tails(1)\r\n      */\r\n\r\n    function flip(uint256 oneZero) public payable {\r\n        require(contractBalance > msg.value, \"We don't have enough funds\");\r\n\r\n        uint256 randomPrice;\r\n\r\n        if(freeCallback == false){\r\n            randomPrice = getQueryPrice();\r\n        } else {\r\n            freeCallback = false;\r\n            randomPrice = 0;\r\n        }\r\n\r\n        uint256 QUERY_EXECUTION_DELAY = 0;\r\n        bytes32 _queryId = provable_newRandomDSQuery(\r\n            QUERY_EXECUTION_DELAY,\r\n            NUM_RANDOM_BYTES_REQUESTED,\r\n            GAS_FOR_CALLBACK\r\n        );\r\n\r\n        emit logNewProvableQuery(\"Message sent. Waiting for an answer...\");\r\n        emit sentQueryId(msg.sender, _queryId);\r\n\r\n        uint256 flipResult = block.timestamp % 2;\r\n\r\n        if(flipResult == oneZero){\r\n            playerWinnings[msg.sender] = msg.value  * 2;\r\n            //winner\r\n            emit callbackReceived(_queryId, \"Winner\", msg.value * 2);\r\n            withdrawUserWinnings();\r\n\r\n        } else {\r\n\r\n            //loser\r\n            emit callbackReceived(_queryId, \"Loser\", msg.value);\r\n        }\r\n\r\n        Bet memory newBetter;\r\n        newBetter.playerAddress = msg.sender;\r\n        newBetter.betValue = msg.value;\r\n        newBetter.headsTails = oneZero;\r\n        newBetter.setRandomPrice = 0;\r\n\r\n        waiting[msg.sender] = newBetter;\r\n\r\n    }\r\n\r\n\r\n    function etheroll(uint256 oneZero) public payable {\r\n        require(contractBalance > msg.value, \"We don't have enough funds\");\r\n\r\n        uint256 randomPrice;\r\n\r\n        if(freeCallback == false){\r\n            randomPrice = getQueryPrice();\r\n        } else {\r\n            freeCallback = false;\r\n            randomPrice = 0;\r\n        }\r\n\r\n        uint256 QUERY_EXECUTION_DELAY = 0;\r\n        bytes32 _queryId = provable_newRandomDSQuery(\r\n            QUERY_EXECUTION_DELAY,\r\n            NUM_RANDOM_BYTES_REQUESTED,\r\n            GAS_FOR_CALLBACK\r\n        );\r\n\r\n        emit logNewProvableQuery(\"Message sent. Waiting for an answer...\");\r\n        emit sentQueryId(msg.sender, _queryId);\r\n\r\n        uint256 flipResult = block.timestamp % 100;\r\n\r\n        if(oneZero <= flipResult ){\r\n            uint256 outcome = (msg.value *(100-(oneZero-1)))/(oneZero-1) + msg.value ;\r\n            playerWinnings[msg.sender] = outcome;\r\n            //winner\r\n            emit callbackReceived(_queryId, \"Winner\", outcome);\r\n            withdrawUserWinnings();\r\n        } else {\r\n\r\n            //loser\r\n            emit callbackReceived(_queryId, \"Loser\", msg.value);\r\n        }\r\n\r\n        Bet memory newBetter;\r\n        newBetter.playerAddress = msg.sender;\r\n        newBetter.betValue = msg.value;\r\n        newBetter.headsTails = oneZero;\r\n        newBetter.setRandomPrice = 0;\r\n\r\n        waiting[msg.sender] = newBetter;\r\n    }\r\n\r\n    function Dice(uint256 oneZero) public payable {\r\n        require(contractBalance > msg.value, \"We don't have enough funds\");\r\n\r\n        uint256 randomPrice;\r\n\r\n        if(freeCallback == false){\r\n            randomPrice = getQueryPrice();\r\n        } else {\r\n            freeCallback = false;\r\n            randomPrice = 0;\r\n        }\r\n\r\n        uint256 QUERY_EXECUTION_DELAY = 0;\r\n        bytes32 _queryId = provable_newRandomDSQuery(\r\n            QUERY_EXECUTION_DELAY,\r\n            NUM_RANDOM_BYTES_REQUESTED,\r\n            GAS_FOR_CALLBACK\r\n        );\r\n\r\n        emit logNewProvableQuery(\"Message sent. Waiting for an answer...\");\r\n        emit sentQueryId(msg.sender, _queryId);\r\n\r\n        uint256 flipResult = block.timestamp % 6;\r\n\r\n\r\n\r\n        if(flipResult == 1) {\r\n            playerWinnings[msg.sender] = (msg.value * 589) / 100;\r\n            emit callbackReceived(_queryId, \"Winner\", msg.value * 2);\r\n        }\r\n        if(flipResult == 2) {\r\n            playerWinnings[msg.sender] = (msg.value * 293) / 100;\r\n            emit callbackReceived(_queryId, \"Winner\", msg.value * 2);\r\n        }\r\n        if(flipResult == 3) {\r\n            playerWinnings[msg.sender] = (msg.value * 195) / 100;\r\n            emit callbackReceived(_queryId, \"Winner\", msg.value * 2);\r\n        }\r\n        if(flipResult == 4) {\r\n            playerWinnings[msg.sender] = (msg.value * 142) / 100;\r\n            emit callbackReceived(_queryId, \"Winner\", msg.value * 2);\r\n        }\r\n        if(flipResult == 5) {\r\n            playerWinnings[msg.sender] = (msg.value * 107) / 100;\r\n            emit callbackReceived(_queryId, \"Winner\", msg.value * 2);\r\n        }\r\n        if(flipResult >= 6) {\r\n            playerWinnings[msg.sender] = 0;\r\n            emit callbackReceived(_queryId, \"Loser\", msg.value);\r\n        }\r\n\r\n\r\n        Bet memory newBetter;\r\n        newBetter.playerAddress = msg.sender;\r\n        newBetter.betValue = msg.value;\r\n        newBetter.headsTails = oneZero;\r\n        newBetter.setRandomPrice = 0;\r\n\r\n        waiting[msg.sender] = newBetter;\r\n    }\r\n\r\n    function Dice(uint256[] memory _guess) public payable {\r\n        require(contractBalance > msg.value, \"We don't have enough funds\");\r\n        require (_guess.length <  6, \"Can't Play\");\r\n        uint256 randomPrice;\r\n\r\n        if(freeCallback == false){\r\n            randomPrice = getQueryPrice();\r\n        }   else {\r\n            freeCallback = false;\r\n            randomPrice = 0;\r\n        }\r\n\r\n        uint256 QUERY_EXECUTION_DELAY = 0;\r\n        bytes32 _queryId = provable_newRandomDSQuery(\r\n            QUERY_EXECUTION_DELAY,\r\n            NUM_RANDOM_BYTES_REQUESTED,\r\n            GAS_FOR_CALLBACK\r\n        );\r\n\r\n        emit logNewProvableQuery(\"Message sent. Waiting for an answer...\");\r\n        emit sentQueryId(msg.sender, _queryId);\r\n\r\n        uint256 flipResult = block.timestamp % 6;\r\n\r\n        //TODO add bool playerwon\r\n\r\n        for (uint i; i <= _guess.length; i++) {\r\n\r\n            if(flipResult == _guess[i]){\r\n\r\n                if(_guess.length == 1) {\r\n                    playerWinnings[msg.sender] = (msg.value * 589) / 100;\r\n                    emit callbackReceived(_queryId, \"Winner\", playerWinnings[msg.sender]);\r\n                }\r\n                if(_guess.length == 2) {\r\n                    playerWinnings[msg.sender] = (msg.value * 293) / 100;\r\n                    emit callbackReceived(_queryId, \"Winner\", playerWinnings[msg.sender]);\r\n                }\r\n                if(_guess.length == 3) {\r\n                    playerWinnings[msg.sender] = (msg.value * 195) / 100;\r\n                    emit callbackReceived(_queryId, \"Winner\", playerWinnings[msg.sender]);\r\n                }\r\n                if(_guess.length == 4) {\r\n                    playerWinnings[msg.sender] = (msg.value * 142) / 100;\r\n                    emit callbackReceived(_queryId, \"Winner\", playerWinnings[msg.sender]);\r\n                }\r\n                if(_guess.length == 5) {\r\n                    playerWinnings[msg.sender] = (msg.value * 107) / 100;\r\n                    emit callbackReceived(_queryId, \"Winner\", playerWinnings[msg.sender]);\r\n                }\r\n\r\n            }\r\n\r\n\r\n        }\r\n        Bet memory newBetter;\r\n        newBetter.playerAddress = msg.sender;\r\n        newBetter.betValue = msg.value;\r\n        newBetter.setRandomPrice = 0;\r\n\r\n        waiting[msg.sender] = newBetter;\r\n    }\r\n\r\n    //combine gas and randomTx fee\r\n    function getQueryPrice() internal returns(uint256 _price) {\r\n        _price = provable_getPrice(\"price\", GAS_FOR_CALLBACK);\r\n    }\r\n\r\n\r\n    function getWinningsBalance() public view returns(uint){\r\n        return playerWinnings[msg.sender];\r\n    }\r\n\r\n    /**\r\n    *@notice The following functions are reserved for the owner of the contract.\r\n     */\r\n\r\n    function fundContract() public payable onlyOwner {\r\n    require(msg.value >= 1 ether, \"Please add at least 1 ether\");\r\n    contractBalance = SafeMath.add(contractBalance, msg.value);\r\n    }\r\n\r\n    function fundWinnings() public payable onlyOwner {\r\n        playerWinnings[msg.sender] = SafeMath.add(playerWinnings[msg.sender], msg.value);\r\n    }\r\n\r\n    function withdrawAll() public Owner {\r\n        uint toTransfer = contractBalance;\r\n        contractBalance = 0;\r\n        msg.sender.transfer(toTransfer);\r\n    }\r\n\r\n}\r\n",
  "sourcePath": "C:/Users/Vasilis/Downloads/diceBNB/src/contracts/Coinflip.sol",
  "compiler": {
    "name": "solc",
    "version": "0.5.16+commit.9c3226ce.Emscripten.clang"
  },
  "schemaVersion": "3.3.2",
  "updatedAt": "2021-08-12T15:26:27.634Z",
  "devdoc": {
    "methods": {
      "__callback(bytes32,string)": {
        "details": "The following `__callback` functions are just placeholders ideally     meant to be defined in child contract when proofs are used.     The function bodies simply silence compiler warnings."
      },
      "flip(uint256)": {
        "params": {
          "oneZero": "- The numerical value of heads(0) or tails(1)"
        }
      }
    }
  },
  "userdoc": {
    "methods": {
      "flip(uint256)": {
        "notice": "notice This function simulates a coin flip which makes a call to the Provable oracle for       a random number. dev The function first checks if this is the very first call to the Provable oracle in order    for the user to not pay for the first free call. This also adds user values to two different    mappings: 'waiting' and 'afterWaiting.' Both mappings are necessary in order to bridge the    user's address (which we has access to here with msg.sender) and the user's queryId sent from    Provable after the function call. "
      },
      "fundContract()": {
        "notice": "notice The following functions are reserved for the owner of the contract."
      }
    }
  }
}