{
  "contractName": "Coinflip",
  "abi": [
    {
      "inputs": [],
      "payable": true,
      "stateMutability": "payable",
      "type": "constructor"
    },
    {
      "anonymous": false,
      "inputs": [
        {
          "indexed": true,
          "internalType": "bytes32",
          "name": "queryId",
          "type": "bytes32"
        },
        {
          "indexed": false,
          "internalType": "string",
          "name": "description",
          "type": "string"
        },
        {
          "indexed": false,
          "internalType": "uint256",
          "name": "amount",
          "type": "uint256"
        }
      ],
      "name": "callbackReceived",
      "type": "event"
    },
    {
      "anonymous": false,
      "inputs": [
        {
          "indexed": false,
          "internalType": "string",
          "name": "description",
          "type": "string"
        }
      ],
      "name": "logNewProvableQuery",
      "type": "event"
    },
    {
      "anonymous": false,
      "inputs": [
        {
          "indexed": false,
          "internalType": "address",
          "name": "caller",
          "type": "address"
        },
        {
          "indexed": true,
          "internalType": "bytes32",
          "name": "queryId",
          "type": "bytes32"
        }
      ],
      "name": "sentQueryId",
      "type": "event"
    },
    {
      "anonymous": false,
      "inputs": [
        {
          "indexed": true,
          "internalType": "address",
          "name": "caller",
          "type": "address"
        },
        {
          "indexed": false,
          "internalType": "uint256",
          "name": "amount",
          "type": "uint256"
        }
      ],
      "name": "userWithdrawal",
      "type": "event"
    },
    {
      "constant": false,
      "inputs": [
        {
          "internalType": "bytes32",
          "name": "_myid",
          "type": "bytes32"
        },
        {
          "internalType": "string",
          "name": "_result",
          "type": "string"
        }
      ],
      "name": "__callback",
      "outputs": [],
      "payable": false,
      "stateMutability": "nonpayable",
      "type": "function"
    },
    {
      "constant": false,
      "inputs": [
        {
          "internalType": "bytes32",
          "name": "_myid",
          "type": "bytes32"
        },
        {
          "internalType": "string",
          "name": "_result",
          "type": "string"
        },
        {
          "internalType": "bytes",
          "name": "_proof",
          "type": "bytes"
        }
      ],
      "name": "__callback",
      "outputs": [],
      "payable": false,
      "stateMutability": "nonpayable",
      "type": "function"
    },
    {
      "constant": true,
      "inputs": [
        {
          "internalType": "bytes32",
          "name": "",
          "type": "bytes32"
        }
      ],
      "name": "afterWaiting",
      "outputs": [
        {
          "internalType": "address",
          "name": "",
          "type": "address"
        }
      ],
      "payable": false,
      "stateMutability": "view",
      "type": "function"
    },
    {
      "constant": true,
      "inputs": [],
      "name": "contractBalance",
      "outputs": [
        {
          "internalType": "uint256",
          "name": "",
          "type": "uint256"
        }
      ],
      "payable": false,
      "stateMutability": "view",
      "type": "function"
    },
    {
      "constant": true,
      "inputs": [],
      "name": "freeCallback",
      "outputs": [
        {
          "internalType": "bool",
          "name": "",
          "type": "bool"
        }
      ],
      "payable": false,
      "stateMutability": "view",
      "type": "function"
    },
    {
      "constant": true,
      "inputs": [],
      "name": "owner",
      "outputs": [
        {
          "internalType": "address payable",
          "name": "",
          "type": "address"
        }
      ],
      "payable": false,
      "stateMutability": "view",
      "type": "function"
    },
    {
      "constant": true,
      "inputs": [
        {
          "internalType": "address",
          "name": "",
          "type": "address"
        }
      ],
      "name": "playerWinnings",
      "outputs": [
        {
          "internalType": "uint256",
          "name": "",
          "type": "uint256"
        }
      ],
      "payable": false,
      "stateMutability": "view",
      "type": "function"
    },
    {
      "constant": true,
      "inputs": [
        {
          "internalType": "address",
          "name": "",
          "type": "address"
        }
      ],
      "name": "waiting",
      "outputs": [
        {
          "internalType": "address",
          "name": "playerAddress",
          "type": "address"
        },
        {
          "internalType": "uint256",
          "name": "betValue",
          "type": "uint256"
        },
        {
          "internalType": "uint256",
          "name": "headsTails",
          "type": "uint256"
        },
        {
          "internalType": "uint256",
          "name": "setRandomPrice",
          "type": "uint256"
        }
      ],
      "payable": false,
      "stateMutability": "view",
      "type": "function"
    },
    {
      "constant": true,
      "inputs": [],
      "name": "random",
      "outputs": [
        {
          "internalType": "uint256",
          "name": "",
          "type": "uint256"
        }
      ],
      "payable": false,
      "stateMutability": "view",
      "type": "function"
    },
    {
      "constant": false,
      "inputs": [
        {
          "internalType": "bytes32",
          "name": "_queryId",
          "type": "bytes32"
        },
        {
          "internalType": "string",
          "name": "_result",
          "type": "string"
        }
      ],
      "name": "callback",
      "outputs": [],
      "payable": false,
      "stateMutability": "nonpayable",
      "type": "function"
    },
    {
      "constant": false,
      "inputs": [
        {
          "internalType": "uint256",
          "name": "oneZero",
          "type": "uint256"
        }
      ],
      "name": "flip",
      "outputs": [],
      "payable": true,
      "stateMutability": "payable",
      "type": "function"
    },
    {
      "constant": false,
      "inputs": [],
      "name": "withdrawUserWinnings",
      "outputs": [],
      "payable": false,
      "stateMutability": "nonpayable",
      "type": "function"
    },
    {
      "constant": true,
      "inputs": [],
      "name": "getWinningsBalance",
      "outputs": [
        {
          "internalType": "uint256",
          "name": "",
          "type": "uint256"
        }
      ],
      "payable": false,
      "stateMutability": "view",
      "type": "function"
    },
    {
      "constant": false,
      "inputs": [],
      "name": "fundContract",
      "outputs": [],
      "payable": true,
      "stateMutability": "payable",
      "type": "function"
    },
    {
      "constant": false,
      "inputs": [],
      "name": "fundWinnings",
      "outputs": [],
      "payable": true,
      "stateMutability": "payable",
      "type": "function"
    },
    {
      "constant": false,
      "inputs": [],
      "name": "withdrawAll",
      "outputs": [],
      "payable": false,
      "stateMutability": "nonpayable",
      "type": "function"
    }
  ],
  "bytecode": "0x608060405233600960006101000a81548173ffffffffffffffffffffffffffffffffffffffff021916908373ffffffffffffffffffffffffffffffffffffffff1602179055506001600960146101000a81548160ff02191690831515021790555033600960006101000a81548173ffffffffffffffffffffffffffffffffffffffff021916908373ffffffffffffffffffffffffffffffffffffffff16021790555034600881905550613a61806100b76000396000f3fe6080604052600436106100f35760003560e01c8063876c0d591161008a578063b03063bd11610059578063b03063bd146105c0578063b3e254121461063b578063bd097e2114610652578063e437786d1461065c576100f3565b8063876c0d59146105055780638b7afe2e146105345780638da5cb5b1461055f578063a5ce8496146105b6576100f3565b8063449ed7e0116100c6578063449ed7e0146103c65780635ec01e4d14610498578063741c0a0f146104c3578063853828b6146104ee576100f3565b8063221e885d146100f8578063252f4d811461012657806327dc297e1461018b57806338bbfa501461025d575b600080fd5b6101246004803603602081101561010e57600080fd5b8101908080359060200190929190505050610702565b005b34801561013257600080fd5b506101756004803603602081101561014957600080fd5b81019080803573ffffffffffffffffffffffffffffffffffffffff169060200190929190505050610ae5565b6040518082815260200191505060405180910390f35b34801561019757600080fd5b5061025b600480360360408110156101ae57600080fd5b8101908080359060200190929190803590602001906401000000008111156101d557600080fd5b8201836020820111156101e757600080fd5b8035906020019184600183028401116401000000008311171561020957600080fd5b91908080601f016020809104026020016040519081016040528093929190818152602001838380828437600081840152601f19601f820116905080830192505050505050509192919290505050610afd565b005b34801561026957600080fd5b506103c46004803603606081101561028057600080fd5b8101908080359060200190929190803590602001906401000000008111156102a757600080fd5b8201836020820111156102b957600080fd5b803590602001918460018302840111640100000000831117156102db57600080fd5b91908080601f016020809104026020016040519081016040528093929190818152602001838380828437600081840152601f19601f8201169050808301925050505050505091929192908035906020019064010000000081111561033e57600080fd5b82018360208201111561035057600080fd5b8035906020019184600183028401116401000000008311171561037257600080fd5b91908080601f016020809104026020016040519081016040528093929190818152602001838380828437600081840152601f19601f820116905080830192505050505050509192919290505050610b40565b005b3480156103d257600080fd5b50610496600480360360408110156103e957600080fd5b81019080803590602001909291908035906020019064010000000081111561041057600080fd5b82018360208201111561042257600080fd5b8035906020019184600183028401116401000000008311171561044457600080fd5b91908080601f016020809104026020016040519081016040528093929190818152602001838380828437600081840152601f19601f820116905080830192505050505050509192919290505050610b63565b005b3480156104a457600080fd5b506104ad610f0e565b6040518082815260200191505060405180910390f35b3480156104cf57600080fd5b506104d8610f20565b6040518082815260200191505060405180910390f35b3480156104fa57600080fd5b50610503610f67565b005b34801561051157600080fd5b5061051a61101a565b604051808215151515815260200191505060405180910390f35b34801561054057600080fd5b5061054961102d565b6040518082815260200191505060405180910390f35b34801561056b57600080fd5b50610574611033565b604051808273ffffffffffffffffffffffffffffffffffffffff1673ffffffffffffffffffffffffffffffffffffffff16815260200191505060405180910390f35b6105be611059565b005b3480156105cc57600080fd5b506105f9600480360360208110156105e357600080fd5b8101908080359060200190929190505050611141565b604051808273ffffffffffffffffffffffffffffffffffffffff1673ffffffffffffffffffffffffffffffffffffffff16815260200191505060405180910390f35b34801561064757600080fd5b50610650611174565b005b61065a61134a565b005b34801561066857600080fd5b506106ab6004803603602081101561067f57600080fd5b81019080803573ffffffffffffffffffffffffffffffffffffffff1690602001909291905050506113b8565b604051808573ffffffffffffffffffffffffffffffffffffffff1673ffffffffffffffffffffffffffffffffffffffff16815260200184815260200183815260200182815260200194505050505060405180910390f35b3460085411610779576040517f08c379a000000000000000000000000000000000000000000000000000000000815260040180806020018281038252601a8152602001807f576520646f6e2774206861766520656e6f7567682066756e647300000000000081525060200191505060405180910390fd5b6000801515600960149054906101000a900460ff16151514156107a55761079e611408565b90506107c5565b6000600960146101000a81548160ff021916908315150217905550600090505b600080905060006107db82600162030d40611451565b90507f94f2559b5e2b297de3db1587daf2352e872ada3dad01dab9ee3733592fa22ed3604051808060200182810382526026815260200180613a076026913960400191505060405180910390a1807fa19bd41ab5283f5176273e63c8e89f19b8ec4a5c787a6604f651632c71e0f29c33604051808273ffffffffffffffffffffffffffffffffffffffff1673ffffffffffffffffffffffffffffffffffffffff16815260200191505060405180910390a260006002428161089857fe5b06905060008114156109645760023402600560003373ffffffffffffffffffffffffffffffffffffffff1673ffffffffffffffffffffffffffffffffffffffff16815260200190815260200160002081905550817f04cab3657f64d71f15c1887100165dadd28bc26d3a77255585ac5e9f7dedab0d600234026040518080602001838152602001828103825260068152602001807f57696e6e657200000000000000000000000000000000000000000000000000008152506020019250505060405180910390a26109d6565b817f04cab3657f64d71f15c1887100165dadd28bc26d3a77255585ac5e9f7dedab0d346040518080602001838152602001828103825260058152602001807f4c6f7365720000000000000000000000000000000000000000000000000000008152506020019250505060405180910390a25b6109de6138c1565b33816000019073ffffffffffffffffffffffffffffffffffffffff16908173ffffffffffffffffffffffffffffffffffffffff16815250503481602001818152505085816040018181525050600081606001818152505080600660003373ffffffffffffffffffffffffffffffffffffffff1673ffffffffffffffffffffffffffffffffffffffff16815260200190815260200160002060008201518160000160006101000a81548173ffffffffffffffffffffffffffffffffffffffff021916908373ffffffffffffffffffffffffffffffffffffffff160217905550602082015181600101556040820151816002015560608201518160030155905050505050505050565b60056020528060005260406000206000915090505481565b610b3c828260006040519080825280601f01601f191660200182016040528015610b365781602001600182028038833980820191505090505b50610b40565b5050565b6000801b600360008060001b815260200190815260200160002081905550505050565b610b6b6119ec565b73ffffffffffffffffffffffffffffffffffffffff163373ffffffffffffffffffffffffffffffffffffffff1614610ba257600080fd5b6000610c23826040516020018082805190602001908083835b60208310610bde5780518252602082019150602081019050602083039250610bbb565b6001836020036101000a0380198251168184511680821785525050505050509050019150506040516020818303038152906040528051906020012060001c6002611d09565b905060006007600085815260200190815260200160002060009054906101000a900473ffffffffffffffffffffffffffffffffffffffff169050610c656138c1565b600660008373ffffffffffffffffffffffffffffffffffffffff1673ffffffffffffffffffffffffffffffffffffffff1681526020019081526020016000206040518060800160405290816000820160009054906101000a900473ffffffffffffffffffffffffffffffffffffffff1673ffffffffffffffffffffffffffffffffffffffff1673ffffffffffffffffffffffffffffffffffffffff168152602001600182015481526020016002820154815260200160038201548152505090508060400151831415610e6e576000610d4f610d4583602001516002611d93565b8360600151611e19565b9050610d616008548360200151611e19565b600881905550610db0600560008573ffffffffffffffffffffffffffffffffffffffff1673ffffffffffffffffffffffffffffffffffffffff1681526020019081526020016000205482611ea2565b600560008573ffffffffffffffffffffffffffffffffffffffff1673ffffffffffffffffffffffffffffffffffffffff16815260200190815260200160002081905550857f04cab3657f64d71f15c1887100165dadd28bc26d3a77255585ac5e9f7dedab0d83602001516040518080602001838152602001828103825260068152602001807f57696e6e657200000000000000000000000000000000000000000000000000008152506020019250505060405180910390a250610f07565b610e8b600854610e8683602001518460600151611e19565b611ea2565b600881905550847f04cab3657f64d71f15c1887100165dadd28bc26d3a77255585ac5e9f7dedab0d82602001516040518080602001838152602001828103825260058152602001807f4c6f7365720000000000000000000000000000000000000000000000000000008152506020019250505060405180910390a25b5050505050565b600060024281610f1a57fe5b06905090565b6000600560003373ffffffffffffffffffffffffffffffffffffffff1673ffffffffffffffffffffffffffffffffffffffff16815260200190815260200160002054905090565b600960009054906101000a900473ffffffffffffffffffffffffffffffffffffffff1673ffffffffffffffffffffffffffffffffffffffff163373ffffffffffffffffffffffffffffffffffffffff1614610fc157600080fd5b6000600854905060006008819055503373ffffffffffffffffffffffffffffffffffffffff166108fc829081150290604051600060405180830381858888f19350505050158015611016573d6000803e3d6000fd5b5050565b600960149054906101000a900460ff1681565b60085481565b600960009054906101000a900473ffffffffffffffffffffffffffffffffffffffff1681565b600960009054906101000a900473ffffffffffffffffffffffffffffffffffffffff1673ffffffffffffffffffffffffffffffffffffffff163373ffffffffffffffffffffffffffffffffffffffff16146110b357600080fd5b6110fc600560003373ffffffffffffffffffffffffffffffffffffffff1673ffffffffffffffffffffffffffffffffffffffff1681526020019081526020016000205434611ea2565b600560003373ffffffffffffffffffffffffffffffffffffffff1673ffffffffffffffffffffffffffffffffffffffff16815260200190815260200160002081905550565b60076020528060005260406000206000915054906101000a900473ffffffffffffffffffffffffffffffffffffffff1681565b6000600560003373ffffffffffffffffffffffffffffffffffffffff1673ffffffffffffffffffffffffffffffffffffffff1681526020019081526020016000205411611229576040517f08c379a00000000000000000000000000000000000000000000000000000000081526004018080602001828103825260148152602001807f4e6f2066756e647320746f20776974686472617700000000000000000000000081525060200191505060405180910390fd5b6000600560003373ffffffffffffffffffffffffffffffffffffffff1673ffffffffffffffffffffffffffffffffffffffff1681526020019081526020016000205490506000600560003373ffffffffffffffffffffffffffffffffffffffff1673ffffffffffffffffffffffffffffffffffffffff168152602001908152602001600020819055503373ffffffffffffffffffffffffffffffffffffffff166108fc829081150290604051600060405180830381858888f193505050501580156112f8573d6000803e3d6000fd5b503373ffffffffffffffffffffffffffffffffffffffff167f42b2a4ad2d4bdf57e819ccd3c6ce6d0a8d6d20b5d3dbf94ef2b05c42f523c610826040518082815260200191505060405180910390a250565b600960009054906101000a900473ffffffffffffffffffffffffffffffffffffffff1673ffffffffffffffffffffffffffffffffffffffff163373ffffffffffffffffffffffffffffffffffffffff16146113a457600080fd5b6113b060085434611ea2565b600881905550565b60066020528060005260406000206000915090508060000160009054906101000a900473ffffffffffffffffffffffffffffffffffffffff16908060010154908060020154908060030154905084565b600061144c6040518060400160405280600581526020017f707269636500000000000000000000000000000000000000000000000000000081525062030d40611f2a565b905090565b60008083118015611463575060208311155b61146c57600080fd5b600a84029350606060016040519080825280601f01601f1916602001820160405280156114a85781602001600182028038833980820191505090505b5090508360f81b816000815181106114bc57fe5b60200101907effffffffffffffffffffffffffffffffffffffffffffffffffffffffffffff1916908160001a905350606060206040519080825280601f01601f1916602001820160405280156115215781602001600182028038833980820191505090505b509050606060206040519080825280601f01601f19166020018201604052801561155a5781602001600182028038833980820191505090505b50905060006115676122c4565b905060208352424118600143034018602084015260208252806020830152606060206040519080825280601f01601f1916602001820160405280156115bb5781602001600182028038833980820191505090505b509050886020820152606060086040519080825280601f01601f1916602001820160405280156115fa5781602001600182028038833980820191505090505b50905061160d82601860088460006125e1565b506116166138ff565b6040518060800160405280878152602001888152602001868152602001848152509050600061167b6040518060400160405280600681526020017f72616e646f6d0000000000000000000000000000000000000000000000000000815250838c612640565b9050606060086040519080825280601f01601f1916602001820160405280156116b35781602001600182028038833980820191505090505b50905060208401517f0100000000000000000000000000000000000000000000000000000000000000810460278301537e01000000000000000000000000000000000000000000000000000000000000810460268301537d010000000000000000000000000000000000000000000000000000000000810460258301537c0100000000000000000000000000000000000000000000000000000000810460248301537b01000000000000000000000000000000000000000000000000000000810460238301537a0100000000000000000000000000000000000000000000000000008104602283015379010000000000000000000000000000000000000000000000000081046021830153780100000000000000000000000000000000000000000000000081046020830153506119d98282856001600481106117f257fe5b602002015160028760006004811061180657fe5b60200201516040518082805190602001908083835b6020831061183e578051825260208201915060208101905060208303925061181b565b6001836020036101000a038019825116818451168082178552505050505050905001915050602060405180830381855afa158015611880573d6000803e3d6000fd5b5050506040513d602081101561189557600080fd5b8101908080519060200190929190505050876002600481106118b357fe5b60200201516040516020018085805190602001908083835b602083106118ee57805182526020820191506020810190506020830392506118cb565b6001836020036101000a03801982511681845116808217855250505050505090500184805190602001908083835b6020831061193f578051825260208201915060208101905060208303925061191c565b6001836020036101000a03801982511681845116808217855250505050505090500183815260200182805190602001908083835b602083106119965780518252602082019150602081019050602083039250611973565b6001836020036101000a038019825116818451168082178552505050505050905001945050505050604051602081830303815290604052805190602001206129ad565b8199505050505050505050509392505050565b60008073ffffffffffffffffffffffffffffffffffffffff16600160009054906101000a900473ffffffffffffffffffffffffffffffffffffffff1673ffffffffffffffffffffffffffffffffffffffff161480611a7457506000611a72600160009054906101000a900473ffffffffffffffffffffffffffffffffffffffff166129c9565b145b15611a8557611a8360006129d4565b505b600160009054906101000a900473ffffffffffffffffffffffffffffffffffffffff1673ffffffffffffffffffffffffffffffffffffffff166338cc48316040518163ffffffff1660e01b8152600401602060405180830381600087803b158015611aef57600080fd5b505af1158015611b03573d6000803e3d6000fd5b505050506040513d6020811015611b1957600080fd5b810190808051906020019092919050505073ffffffffffffffffffffffffffffffffffffffff166000809054906101000a900473ffffffffffffffffffffffffffffffffffffffff1673ffffffffffffffffffffffffffffffffffffffff1614611c6257600160009054906101000a900473ffffffffffffffffffffffffffffffffffffffff1673ffffffffffffffffffffffffffffffffffffffff166338cc48316040518163ffffffff1660e01b8152600401602060405180830381600087803b158015611be757600080fd5b505af1158015611bfb573d6000803e3d6000fd5b505050506040513d6020811015611c1157600080fd5b81019080805190602001909291905050506000806101000a81548173ffffffffffffffffffffffffffffffffffffffff021916908373ffffffffffffffffffffffffffffffffffffffff1602179055505b6000809054906101000a900473ffffffffffffffffffffffffffffffffffffffff1673ffffffffffffffffffffffffffffffffffffffff1663c281d19e6040518163ffffffff1660e01b815260040160206040518083038186803b158015611cc957600080fd5b505afa158015611cdd573d6000803e3d6000fd5b505050506040513d6020811015611cf357600080fd5b8101908080519060200190929190505050905090565b600080821415611d81576040517f08c379a00000000000000000000000000000000000000000000000000000000081526004018080602001828103825260188152602001807f536166654d6174683a206d6f64756c6f206279207a65726f000000000000000081525060200191505060405180910390fd5b818381611d8a57fe5b06905092915050565b600080831415611da65760009050611e13565b6000828402905082848281611db757fe5b0414611e0e576040517f08c379a00000000000000000000000000000000000000000000000000000000081526004018080602001828103825260218152602001806139e66021913960400191505060405180910390fd5b809150505b92915050565b600082821115611e91576040517f08c379a000000000000000000000000000000000000000000000000000000000815260040180806020018281038252601e8152602001807f536166654d6174683a207375627472616374696f6e206f766572666c6f77000081525060200191505060405180910390fd5b600082840390508091505092915050565b600080828401905083811015611f20576040517f08c379a000000000000000000000000000000000000000000000000000000000815260040180806020018281038252601b8152602001807f536166654d6174683a206164646974696f6e206f766572666c6f77000000000081525060200191505060405180910390fd5b8091505092915050565b60008073ffffffffffffffffffffffffffffffffffffffff16600160009054906101000a900473ffffffffffffffffffffffffffffffffffffffff1673ffffffffffffffffffffffffffffffffffffffff161480611fb257506000611fb0600160009054906101000a900473ffffffffffffffffffffffffffffffffffffffff166129c9565b145b15611fc357611fc160006129d4565b505b600160009054906101000a900473ffffffffffffffffffffffffffffffffffffffff1673ffffffffffffffffffffffffffffffffffffffff166338cc48316040518163ffffffff1660e01b8152600401602060405180830381600087803b15801561202d57600080fd5b505af1158015612041573d6000803e3d6000fd5b505050506040513d602081101561205757600080fd5b810190808051906020019092919050505073ffffffffffffffffffffffffffffffffffffffff166000809054906101000a900473ffffffffffffffffffffffffffffffffffffffff1673ffffffffffffffffffffffffffffffffffffffff16146121a057600160009054906101000a900473ffffffffffffffffffffffffffffffffffffffff1673ffffffffffffffffffffffffffffffffffffffff166338cc48316040518163ffffffff1660e01b8152600401602060405180830381600087803b15801561212557600080fd5b505af1158015612139573d6000803e3d6000fd5b505050506040513d602081101561214f57600080fd5b81019080805190602001909291905050506000806101000a81548173ffffffffffffffffffffffffffffffffffffffff021916908373ffffffffffffffffffffffffffffffffffffffff1602179055505b6000809054906101000a900473ffffffffffffffffffffffffffffffffffffffff1673ffffffffffffffffffffffffffffffffffffffff16632ef3accc84846040518363ffffffff1660e01b81526004018080602001838152602001828103825284818151815260200191508051906020019080838360005b83811015612234578082015181840152602081019050612219565b50505050905090810190601f1680156122615780820380516001836020036101000a031916815260200191505b509350505050602060405180830381600087803b15801561228157600080fd5b505af1158015612295573d6000803e3d6000fd5b505050506040513d60208110156122ab57600080fd5b8101908080519060200190929190505050905092915050565b60008073ffffffffffffffffffffffffffffffffffffffff16600160009054906101000a900473ffffffffffffffffffffffffffffffffffffffff1673ffffffffffffffffffffffffffffffffffffffff16148061234c5750600061234a600160009054906101000a900473ffffffffffffffffffffffffffffffffffffffff166129c9565b145b1561235d5761235b60006129d4565b505b600160009054906101000a900473ffffffffffffffffffffffffffffffffffffffff1673ffffffffffffffffffffffffffffffffffffffff166338cc48316040518163ffffffff1660e01b8152600401602060405180830381600087803b1580156123c757600080fd5b505af11580156123db573d6000803e3d6000fd5b505050506040513d60208110156123f157600080fd5b810190808051906020019092919050505073ffffffffffffffffffffffffffffffffffffffff166000809054906101000a900473ffffffffffffffffffffffffffffffffffffffff1673ffffffffffffffffffffffffffffffffffffffff161461253a57600160009054906101000a900473ffffffffffffffffffffffffffffffffffffffff1673ffffffffffffffffffffffffffffffffffffffff166338cc48316040518163ffffffff1660e01b8152600401602060405180830381600087803b1580156124bf57600080fd5b505af11580156124d3573d6000803e3d6000fd5b505050506040513d60208110156124e957600080fd5b81019080805190602001909291905050506000806101000a81548173ffffffffffffffffffffffffffffffffffffffff021916908373ffffffffffffffffffffffffffffffffffffffff1602179055505b6000809054906101000a900473ffffffffffffffffffffffffffffffffffffffff1673ffffffffffffffffffffffffffffffffffffffff1663abaa5f3e6040518163ffffffff1660e01b815260040160206040518083038186803b1580156125a157600080fd5b505afa1580156125b5573d6000803e3d6000fd5b505050506040513d60208110156125cb57600080fd5b8101908080519060200190929190505050905090565b60606000828501905080845110156125f857600080fd5b600086602001905060008460200190505b8688602001018210156126315781890151808288015250602082019150602081019050612609565b85935050505095945050505050565b60008073ffffffffffffffffffffffffffffffffffffffff16600160009054906101000a900473ffffffffffffffffffffffffffffffffffffffff1673ffffffffffffffffffffffffffffffffffffffff1614806126c8575060006126c6600160009054906101000a900473ffffffffffffffffffffffffffffffffffffffff166129c9565b145b156126d9576126d760006129d4565b505b600160009054906101000a900473ffffffffffffffffffffffffffffffffffffffff1673ffffffffffffffffffffffffffffffffffffffff166338cc48316040518163ffffffff1660e01b8152600401602060405180830381600087803b15801561274357600080fd5b505af1158015612757573d6000803e3d6000fd5b505050506040513d602081101561276d57600080fd5b810190808051906020019092919050505073ffffffffffffffffffffffffffffffffffffffff166000809054906101000a900473ffffffffffffffffffffffffffffffffffffffff1673ffffffffffffffffffffffffffffffffffffffff16146128b657600160009054906101000a900473ffffffffffffffffffffffffffffffffffffffff1673ffffffffffffffffffffffffffffffffffffffff166338cc48316040518163ffffffff1660e01b8152600401602060405180830381600087803b15801561283b57600080fd5b505af115801561284f573d6000803e3d6000fd5b505050506040513d602081101561286557600080fd5b81019080805190602001909291905050506000806101000a81548173ffffffffffffffffffffffffffffffffffffffff021916908373ffffffffffffffffffffffffffffffffffffffff1602179055505b606060046040519080825280602002602001820160405280156128ed57816020015b60608152602001906001900390816128d85790505b509050836000600481106128fd57fe5b60200201518160008151811061290f57fe5b60200260200101819052508360016004811061292757fe5b60200201518160018151811061293957fe5b60200260200101819052508360026004811061295157fe5b60200201518160028151811061296357fe5b60200260200101819052508360036004811061297b57fe5b60200201518160038151811061298d57fe5b60200260200101819052506129a38582856129e5565b9150509392505050565b8060036000848152602001908152602001600020819055505050565b6000813b9050919050565b60006129de612f47565b9050919050565b60008073ffffffffffffffffffffffffffffffffffffffff16600160009054906101000a900473ffffffffffffffffffffffffffffffffffffffff1673ffffffffffffffffffffffffffffffffffffffff161480612a6d57506000612a6b600160009054906101000a900473ffffffffffffffffffffffffffffffffffffffff166129c9565b145b15612a7e57612a7c60006129d4565b505b600160009054906101000a900473ffffffffffffffffffffffffffffffffffffffff1673ffffffffffffffffffffffffffffffffffffffff166338cc48316040518163ffffffff1660e01b8152600401602060405180830381600087803b158015612ae857600080fd5b505af1158015612afc573d6000803e3d6000fd5b505050506040513d6020811015612b1257600080fd5b810190808051906020019092919050505073ffffffffffffffffffffffffffffffffffffffff166000809054906101000a900473ffffffffffffffffffffffffffffffffffffffff1673ffffffffffffffffffffffffffffffffffffffff1614612c5b57600160009054906101000a900473ffffffffffffffffffffffffffffffffffffffff1673ffffffffffffffffffffffffffffffffffffffff166338cc48316040518163ffffffff1660e01b8152600401602060405180830381600087803b158015612be057600080fd5b505af1158015612bf4573d6000803e3d6000fd5b505050506040513d6020811015612c0a57600080fd5b81019080805190602001909291905050506000806101000a81548173ffffffffffffffffffffffffffffffffffffffff021916908373ffffffffffffffffffffffffffffffffffffffff1602179055505b60008060009054906101000a900473ffffffffffffffffffffffffffffffffffffffff1673ffffffffffffffffffffffffffffffffffffffff16632ef3accc86856040518363ffffffff1660e01b81526004018080602001838152602001828103825284818151815260200191508051906020019080838360005b83811015612cf1578082015181840152602081019050612cd6565b50505050905090810190601f168015612d1e5780820380516001836020036101000a031916815260200191505b509350505050602060405180830381600087803b158015612d3e57600080fd5b505af1158015612d52573d6000803e3d6000fd5b505050506040513d6020811015612d6857600080fd5b81019080805190602001909291905050509050823a02670de0b6b3a764000001811115612d9b576000801b915050612f40565b6060612da68561349e565b90506000809054906101000a900473ffffffffffffffffffffffffffffffffffffffff1673ffffffffffffffffffffffffffffffffffffffff1663c55c1cb68360008985896040518663ffffffff1660e01b8152600401808581526020018060200180602001848152602001838103835286818151815260200191508051906020019080838360005b83811015612e4a578082015181840152602081019050612e2f565b50505050905090810190601f168015612e775780820380516001836020036101000a031916815260200191505b50838103825285818151815260200191508051906020019080838360005b83811015612eb0578082015181840152602081019050612e95565b50505050905090810190601f168015612edd5780820380516001836020036101000a031916815260200191505b5096505050505050506020604051808303818588803b158015612eff57600080fd5b505af1158015612f13573d6000803e3d6000fd5b50505050506040513d6020811015612f2a57600080fd5b8101908080519060200190929190505050925050505b9392505050565b600080612f67731d3b2638a7cc9f2cb3d298a3da7a90b67e5506ed6129c9565b111561300957731d3b2638a7cc9f2cb3d298a3da7a90b67e5506ed600160006101000a81548173ffffffffffffffffffffffffffffffffffffffff021916908373ffffffffffffffffffffffffffffffffffffffff1602179055506130006040518060400160405280600b81526020017f6574685f6d61696e6e657400000000000000000000000000000000000000000081525061351e565b6001905061349b565b600061302873c03a2615d5efaf5f49f60b7bb6583eaec212fdf16129c9565b11156130ca5773c03a2615d5efaf5f49f60b7bb6583eaec212fdf1600160006101000a81548173ffffffffffffffffffffffffffffffffffffffff021916908373ffffffffffffffffffffffffffffffffffffffff1602179055506130c16040518060400160405280600c81526020017f6574685f726f707374656e33000000000000000000000000000000000000000081525061351e565b6001905061349b565b60006130e973b7a07bcf2ba2f2703b24c0691b5278999c59ac7e6129c9565b111561318b5773b7a07bcf2ba2f2703b24c0691b5278999c59ac7e600160006101000a81548173ffffffffffffffffffffffffffffffffffffffff021916908373ffffffffffffffffffffffffffffffffffffffff1602179055506131826040518060400160405280600981526020017f6574685f6b6f76616e000000000000000000000000000000000000000000000081525061351e565b6001905061349b565b60006131aa73146500cfd35b22e4a392fe0adc06de1a1368ed486129c9565b111561324c5773146500cfd35b22e4a392fe0adc06de1a1368ed48600160006101000a81548173ffffffffffffffffffffffffffffffffffffffff021916908373ffffffffffffffffffffffffffffffffffffffff1602179055506132436040518060400160405280600b81526020017f6574685f72696e6b65627900000000000000000000000000000000000000000081525061351e565b6001905061349b565b600061326b73a2998efd205fb9d4b4963afb70778d6354ad3a416129c9565b111561330d5773a2998efd205fb9d4b4963afb70778d6354ad3a41600160006101000a81548173ffffffffffffffffffffffffffffffffffffffff021916908373ffffffffffffffffffffffffffffffffffffffff1602179055506133046040518060400160405280600a81526020017f6574685f676f65726c690000000000000000000000000000000000000000000081525061351e565b6001905061349b565b600061332c736f485c8bf6fc43ea212e93bbf8ce046c7f1cb4756129c9565b111561339057736f485c8bf6fc43ea212e93bbf8ce046c7f1cb475600160006101000a81548173ffffffffffffffffffffffffffffffffffffffff021916908373ffffffffffffffffffffffffffffffffffffffff1602179055506001905061349b565b60006133af7320e12a1f859b3feae5fb2a0a32c18f5a65555bbf6129c9565b1115613413577320e12a1f859b3feae5fb2a0a32c18f5a65555bbf600160006101000a81548173ffffffffffffffffffffffffffffffffffffffff021916908373ffffffffffffffffffffffffffffffffffffffff1602179055506001905061349b565b60006134327351efaf4c8b3c9afbd5ab9f4bbc82784ab6ef8faa6129c9565b1115613496577351efaf4c8b3c9afbd5ab9f4bbc82784ab6ef8faa600160006101000a81548173ffffffffffffffffffffffffffffffffffffffff021916908373ffffffffffffffffffffffffffffffffffffffff1602179055506001905061349b565b600090505b90565b60606134a8613538565b6134b0613926565b6134bc81610400613544565b6134c58161358e565b60008090505b8351811015613507576134fa8482815181106134e357fe5b60200260200101518361359c90919063ffffffff16565b80806001019150506134cb565b50613511816135c1565b8060000151915050919050565b8060029080519060200190613534929190613940565b5050565b60405180590338823950565b600081905060006020828161355557fe5b061461356e576020818161356557fe5b06602003810190505b808360200181815250506040518084526000815281810160405250505050565b6135998160046135cf565b50565b6135a982600283516135f0565b6135bc818361373090919063ffffffff16565b505050565b6135cc8160076135cf565b50565b6135ec601f60058360ff16901b17836137db90919063ffffffff16565b5050565b6017811161361c576136178160058460ff16901b60ff1617846137db90919063ffffffff16565b61372b565b60ff811161365d57613641601860058460ff16901b17846137db90919063ffffffff16565b6136578160018561381b9092919063ffffffff16565b5061372a565b61ffff811161369f57613683601960058460ff16901b17846137db90919063ffffffff16565b6136998160028561381b9092919063ffffffff16565b50613729565b63ffffffff81116136e3576136c7601a60058460ff16901b17846137db90919063ffffffff16565b6136dd8160048561381b9092919063ffffffff16565b50613728565b67ffffffffffffffff81116137275761370f601b60058460ff16901b17846137db90919063ffffffff16565b6137258160088561381b9092919063ffffffff16565b505b5b5b5b5b505050565b613738613926565b826020015183600001515183510111156137685761376783600261376186602001518651613882565b0261389e565b5b60008060008451905085518051602081830101945086518101825260208701935050505b602081106137af578151835260208301925060208201915060208103905061378c565b60006001826020036101000a039050801983511681855116818117865250508694505050505092915050565b816020015160018360000151510111156138015761380082600284602001510261389e565b5b815180516020818301018381536001820183525050505050565b613823613926565b8360200151846000015151830111156138515761385084600261384a876020015186613882565b0261389e565b5b60006001836101000a0390508451805184818301018684198251161781528582018352505050849150509392505050565b60008183111561389457829050613898565b8190505b92915050565b6060826000015190506138b18383613544565b6138bb8382613730565b50505050565b6040518060800160405280600073ffffffffffffffffffffffffffffffffffffffff1681526020016000815260200160008152602001600081525090565b60405180608001604052806004905b606081526020019060019003908161390e5790505090565b604051806040016040528060608152602001600081525090565b828054600181600116156101000203166002900490600052602060002090601f016020900481019282601f1061398157805160ff19168380011785556139af565b828001600101855582156139af579182015b828111156139ae578251825591602001919060010190613993565b5b5090506139bc91906139c0565b5090565b6139e291905b808211156139de5760008160009055506001016139c6565b5090565b9056fe536166654d6174683a206d756c7469706c69636174696f6e206f766572666c6f774d6573736167652073656e742e2057616974696e6720666f7220616e20616e737765722e2e2ea265627a7a7231582089c9aba8d2e6b9c765cd386b7fc39b4d454e94e7f666ef8db914be4edbcb2ae864736f6c63430005100032",
  "source": "pragma solidity =0.5.16;\r\n\r\nimport './provableAPI_0.5.sol';\r\nimport './SafeMath.sol';\r\n\r\ncontract Coinflip is usingProvable {\r\n    using SafeMath for uint;\r\n\r\n    struct Bet {\r\n        address playerAddress;\r\n        uint betValue;\r\n        uint headsTails;\r\n        uint setRandomPrice;\r\n    }\r\n\r\n    mapping(address => uint) public playerWinnings;\r\n    mapping (address => Bet) public waiting;\r\n    mapping (bytes32 => address) public afterWaiting;\r\n\r\n    event logNewProvableQuery(string description);\r\n    event sentQueryId(address caller, bytes32 indexed queryId);\r\n    event callbackReceived(bytes32 indexed queryId, string description, uint256 amount);\r\n    event userWithdrawal(address indexed caller, uint256 amount);\r\n\r\n    uint public contractBalance;\r\n\r\n    uint256 constant GAS_FOR_CALLBACK = 200000;\r\n    uint256 constant NUM_RANDOM_BYTES_REQUESTED = 1;\r\n\r\n    address payable public owner = msg.sender;\r\n\r\n    bool public freeCallback = true;\r\n\r\n    constructor() public payable{\r\n        owner = msg.sender;\r\n        contractBalance = msg.value;\r\n    }\r\n\r\n    modifier onlyOwner() {\r\n        require(msg.sender == owner);\r\n        _;\r\n    }\r\n\r\n\r\n    function random() public view returns (uint) {\r\n        return now % 2;\r\n    }\r\n\r\n    function callback(bytes32 _queryId, string memory _result) public {\r\n        require(msg.sender == provable_cbAddress());\r\n\r\n        //turn number into 1 or 0\r\n        uint256 flipResult = SafeMath.mod(uint256(keccak256(abi.encodePacked(_result))), 2);\r\n\r\n        //linking new mapping with new struct\r\n        address _player = afterWaiting[_queryId];\r\n\r\n        Bet memory postBet = waiting[_player];\r\n\r\n\r\n        if(flipResult == postBet.headsTails){\r\n            //winner\r\n            uint winAmount = SafeMath.sub(SafeMath.mul(postBet.betValue, 2), postBet.setRandomPrice);\r\n            contractBalance = SafeMath.sub(contractBalance, postBet.betValue);\r\n            playerWinnings[_player] = SafeMath.add(playerWinnings[_player], winAmount);\r\n\r\n            /**\r\n            *         @notice The following commented commands mirror the above commands sans SafeMath for readability.\r\n            *\r\n            *          uint winAmount = (postBet.betValue * 2) - postBet.setRandomPrice;\r\n            *          contractBalance -= postBet.betValue;\r\n            *          playerWinnings[_player] += winAmount;\r\n             */\r\n\r\n            emit callbackReceived(_queryId, \"Winner\", postBet.betValue);\r\n        } else {\r\n            //loser\r\n            contractBalance = SafeMath.add(contractBalance, SafeMath.sub(postBet.betValue, postBet.setRandomPrice));\r\n            /**\r\n            *           @notice For readability--see previous comment.\r\n            *\r\n            *          contractBalance += (postBet.betValue - postBet.setRandomPrice);\r\n             */\r\n            emit callbackReceived(_queryId, \"Loser\", postBet.betValue);\r\n        }\r\n    }\r\n\r\n    /**\r\n     *@notice This function simulates a coin flip which makes a call to the Provable oracle for\r\n     *        a random number.\r\n     *@dev The function first checks if this is the very first call to the Provable oracle in order\r\n     *     for the user to not pay for the first free call. This also adds user values to two different\r\n     *     mappings: 'waiting' and 'afterWaiting.' Both mappings are necessary in order to bridge the\r\n     *     user's address (which we has access to here with msg.sender) and the user's queryId sent from\r\n     *     Provable after the function call.\r\n     *\r\n     *@param oneZero - The numerical value of heads(0) or tails(1)\r\n      */\r\n\r\n    function flip(uint256 oneZero) public payable {\r\n        require(contractBalance > msg.value, \"We don't have enough funds\");\r\n\r\n        uint256 randomPrice;\r\n\r\n        if(freeCallback == false){\r\n            randomPrice = getQueryPrice();\r\n        } else {\r\n            freeCallback = false;\r\n            randomPrice = 0;\r\n        }\r\n\r\n        uint256 QUERY_EXECUTION_DELAY = 0;\r\n        bytes32 _queryId = provable_newRandomDSQuery(\r\n            QUERY_EXECUTION_DELAY,\r\n            NUM_RANDOM_BYTES_REQUESTED,\r\n            GAS_FOR_CALLBACK\r\n        );\r\n\r\n        emit logNewProvableQuery(\"Message sent. Waiting for an answer...\");\r\n        emit sentQueryId(msg.sender, _queryId);\r\n\r\n        uint256 flipResult = block.timestamp %2;\r\n\r\n        if(flipResult == 0){\r\n            playerWinnings[msg.sender] = msg.value  * 2;\r\n            //winner\r\n            emit callbackReceived(_queryId, \"Winner\", msg.value * 2);\r\n        } else {\r\n\r\n            //loser\r\n            emit callbackReceived(_queryId, \"Loser\", msg.value);\r\n        }\r\n\r\n        Bet memory newBetter;\r\n        newBetter.playerAddress = msg.sender;\r\n        newBetter.betValue = msg.value;\r\n        newBetter.headsTails = oneZero;\r\n        newBetter.setRandomPrice = 0;\r\n\r\n        waiting[msg.sender] = newBetter;\r\n    }\r\n\r\n\r\n\r\n    //combine gas and randomTx fee\r\n    function getQueryPrice() internal returns(uint256 _price) {\r\n        _price = provable_getPrice(\"price\", GAS_FOR_CALLBACK);\r\n    }\r\n\r\n\r\n    function withdrawUserWinnings() public {\r\n        require(playerWinnings[msg.sender] > 0, \"No funds to withdraw\");\r\n        uint toTransfer = playerWinnings[msg.sender];\r\n        playerWinnings[msg.sender] = 0;\r\n        msg.sender.transfer(toTransfer);\r\n        emit userWithdrawal(msg.sender, toTransfer);\r\n    }\r\n\r\n    function getWinningsBalance() public view returns(uint){\r\n        return playerWinnings[msg.sender];\r\n    }\r\n\r\n    /**\r\n    *@notice The following functions are reserved for the owner of the contract.\r\n     */\r\n\r\n    function fundContract() public payable onlyOwner {\r\n        contractBalance = SafeMath.add(contractBalance, msg.value);\r\n    }\r\n\r\n    function fundWinnings() public payable onlyOwner {\r\n        playerWinnings[msg.sender] = SafeMath.add(playerWinnings[msg.sender], msg.value);\r\n    }\r\n\r\n    function withdrawAll() public onlyOwner {\r\n        uint toTransfer = contractBalance;\r\n        contractBalance = 0;\r\n        msg.sender.transfer(toTransfer);\r\n    }\r\n\r\n}\r\n",
  "sourcePath": "C:/Users/Vasilis/Downloads/diceBNB/src/contracts/Coinflip.sol",
  "compiler": {
    "name": "solc",
    "version": "0.5.16+commit.9c3226ce.Emscripten.clang"
  },
  "schemaVersion": "3.3.2",
  "updatedAt": "2021-07-23T18:28:41.266Z",
  "networkType": "ethereum",
  "devdoc": {
    "methods": {
      "__callback(bytes32,string)": {
        "details": "The following `__callback` functions are just placeholders ideally     meant to be defined in child contract when proofs are used.     The function bodies simply silence compiler warnings."
      },
      "flip(uint256)": {
        "params": {
          "oneZero": "- The numerical value of heads(0) or tails(1)"
        }
      }
    }
  },
  "userdoc": {
    "methods": {
      "flip(uint256)": {
        "notice": "notice This function simulates a coin flip which makes a call to the Provable oracle for       a random number. dev The function first checks if this is the very first call to the Provable oracle in order    for the user to not pay for the first free call. This also adds user values to two different    mappings: 'waiting' and 'afterWaiting.' Both mappings are necessary in order to bridge the    user's address (which we has access to here with msg.sender) and the user's queryId sent from    Provable after the function call. "
      },
      "fundContract()": {
        "notice": "notice The following functions are reserved for the owner of the contract."
      }
    }
  }
}