{
  "contractName": "Coinflip",
  "abi": [
    {
      "inputs": [],
      "payable": true,
      "stateMutability": "payable",
      "type": "constructor"
    },
    {
      "anonymous": false,
      "inputs": [
        {
          "indexed": true,
          "internalType": "bytes32",
          "name": "queryId",
          "type": "bytes32"
        },
        {
          "indexed": false,
          "internalType": "string",
          "name": "description",
          "type": "string"
        },
        {
          "indexed": false,
          "internalType": "uint256",
          "name": "amount",
          "type": "uint256"
        }
      ],
      "name": "callbackReceived",
      "type": "event"
    },
    {
      "anonymous": false,
      "inputs": [
        {
          "indexed": false,
          "internalType": "string",
          "name": "description",
          "type": "string"
        }
      ],
      "name": "logNewProvableQuery",
      "type": "event"
    },
    {
      "anonymous": false,
      "inputs": [
        {
          "indexed": false,
          "internalType": "address",
          "name": "caller",
          "type": "address"
        },
        {
          "indexed": true,
          "internalType": "bytes32",
          "name": "queryId",
          "type": "bytes32"
        }
      ],
      "name": "sentQueryId",
      "type": "event"
    },
    {
      "anonymous": false,
      "inputs": [
        {
          "indexed": true,
          "internalType": "address",
          "name": "caller",
          "type": "address"
        },
        {
          "indexed": false,
          "internalType": "uint256",
          "name": "amount",
          "type": "uint256"
        }
      ],
      "name": "userWithdrawal",
      "type": "event"
    },
    {
      "constant": false,
      "inputs": [
        {
          "internalType": "bytes32",
          "name": "_myid",
          "type": "bytes32"
        },
        {
          "internalType": "string",
          "name": "_result",
          "type": "string"
        }
      ],
      "name": "__callback",
      "outputs": [],
      "payable": false,
      "stateMutability": "nonpayable",
      "type": "function"
    },
    {
      "constant": false,
      "inputs": [
        {
          "internalType": "bytes32",
          "name": "_myid",
          "type": "bytes32"
        },
        {
          "internalType": "string",
          "name": "_result",
          "type": "string"
        },
        {
          "internalType": "bytes",
          "name": "_proof",
          "type": "bytes"
        }
      ],
      "name": "__callback",
      "outputs": [],
      "payable": false,
      "stateMutability": "nonpayable",
      "type": "function"
    },
    {
      "constant": true,
      "inputs": [
        {
          "internalType": "bytes32",
          "name": "",
          "type": "bytes32"
        }
      ],
      "name": "afterWaiting",
      "outputs": [
        {
          "internalType": "address",
          "name": "",
          "type": "address"
        }
      ],
      "payable": false,
      "stateMutability": "view",
      "type": "function"
    },
    {
      "constant": true,
      "inputs": [],
      "name": "contractBalance",
      "outputs": [
        {
          "internalType": "uint256",
          "name": "",
          "type": "uint256"
        }
      ],
      "payable": false,
      "stateMutability": "view",
      "type": "function"
    },
    {
      "constant": true,
      "inputs": [],
      "name": "freeCallback",
      "outputs": [
        {
          "internalType": "bool",
          "name": "",
          "type": "bool"
        }
      ],
      "payable": false,
      "stateMutability": "view",
      "type": "function"
    },
    {
      "constant": true,
      "inputs": [],
      "name": "owner",
      "outputs": [
        {
          "internalType": "address payable",
          "name": "",
          "type": "address"
        }
      ],
      "payable": false,
      "stateMutability": "view",
      "type": "function"
    },
    {
      "constant": true,
      "inputs": [
        {
          "internalType": "address",
          "name": "",
          "type": "address"
        }
      ],
      "name": "playerWinnings",
      "outputs": [
        {
          "internalType": "uint256",
          "name": "",
          "type": "uint256"
        }
      ],
      "payable": false,
      "stateMutability": "view",
      "type": "function"
    },
    {
      "constant": true,
      "inputs": [
        {
          "internalType": "address",
          "name": "",
          "type": "address"
        }
      ],
      "name": "waiting",
      "outputs": [
        {
          "internalType": "address",
          "name": "playerAddress",
          "type": "address"
        },
        {
          "internalType": "uint256",
          "name": "betValue",
          "type": "uint256"
        },
        {
          "internalType": "uint256",
          "name": "headsTails",
          "type": "uint256"
        },
        {
          "internalType": "uint256",
          "name": "setRandomPrice",
          "type": "uint256"
        }
      ],
      "payable": false,
      "stateMutability": "view",
      "type": "function"
    },
    {
      "constant": true,
      "inputs": [],
      "name": "random",
      "outputs": [
        {
          "internalType": "uint256",
          "name": "",
          "type": "uint256"
        }
      ],
      "payable": false,
      "stateMutability": "view",
      "type": "function"
    },
    {
      "constant": false,
      "inputs": [
        {
          "internalType": "bytes32",
          "name": "_queryId",
          "type": "bytes32"
        },
        {
          "internalType": "string",
          "name": "_result",
          "type": "string"
        }
      ],
      "name": "callback",
      "outputs": [],
      "payable": false,
      "stateMutability": "nonpayable",
      "type": "function"
    },
    {
      "constant": false,
      "inputs": [
        {
          "internalType": "uint256",
          "name": "oneZero",
          "type": "uint256"
        }
      ],
      "name": "flip",
      "outputs": [],
      "payable": true,
      "stateMutability": "payable",
      "type": "function"
    },
    {
      "constant": false,
      "inputs": [],
      "name": "withdrawUserWinnings",
      "outputs": [],
      "payable": false,
      "stateMutability": "nonpayable",
      "type": "function"
    },
    {
      "constant": true,
      "inputs": [],
      "name": "getWinningsBalance",
      "outputs": [
        {
          "internalType": "uint256",
          "name": "",
          "type": "uint256"
        }
      ],
      "payable": false,
      "stateMutability": "view",
      "type": "function"
    },
    {
      "constant": false,
      "inputs": [],
      "name": "fundContract",
      "outputs": [],
      "payable": true,
      "stateMutability": "payable",
      "type": "function"
    },
    {
      "constant": false,
      "inputs": [],
      "name": "fundWinnings",
      "outputs": [],
      "payable": true,
      "stateMutability": "payable",
      "type": "function"
    },
    {
      "constant": false,
      "inputs": [],
      "name": "withdrawAll",
      "outputs": [],
      "payable": false,
      "stateMutability": "nonpayable",
      "type": "function"
    }
  ],
  "bytecode": "0x608060405233600960006101000a81548173ffffffffffffffffffffffffffffffffffffffff021916908373ffffffffffffffffffffffffffffffffffffffff1602179055506001600960146101000a81548160ff02191690831515021790555033600960006101000a81548173ffffffffffffffffffffffffffffffffffffffff021916908373ffffffffffffffffffffffffffffffffffffffff160217905550346008819055506139a6806100b76000396000f3fe6080604052600436106100f35760003560e01c8063876c0d591161008a578063b03063bd11610059578063b03063bd146105c0578063b3e254121461063b578063bd097e2114610652578063e437786d1461065c576100f3565b8063876c0d59146105055780638b7afe2e146105345780638da5cb5b1461055f578063a5ce8496146105b6576100f3565b8063449ed7e0116100c6578063449ed7e0146103c65780635ec01e4d14610498578063741c0a0f146104c3578063853828b6146104ee576100f3565b8063221e885d146100f8578063252f4d811461012657806327dc297e1461018b57806338bbfa501461025d575b600080fd5b6101246004803603602081101561010e57600080fd5b8101908080359060200190929190505050610702565b005b34801561013257600080fd5b506101756004803603602081101561014957600080fd5b81019080803573ffffffffffffffffffffffffffffffffffffffff169060200190929190505050610a2a565b6040518082815260200191505060405180910390f35b34801561019757600080fd5b5061025b600480360360408110156101ae57600080fd5b8101908080359060200190929190803590602001906401000000008111156101d557600080fd5b8201836020820111156101e757600080fd5b8035906020019184600183028401116401000000008311171561020957600080fd5b91908080601f016020809104026020016040519081016040528093929190818152602001838380828437600081840152601f19601f820116905080830192505050505050509192919290505050610a42565b005b34801561026957600080fd5b506103c46004803603606081101561028057600080fd5b8101908080359060200190929190803590602001906401000000008111156102a757600080fd5b8201836020820111156102b957600080fd5b803590602001918460018302840111640100000000831117156102db57600080fd5b91908080601f016020809104026020016040519081016040528093929190818152602001838380828437600081840152601f19601f8201169050808301925050505050505091929192908035906020019064010000000081111561033e57600080fd5b82018360208201111561035057600080fd5b8035906020019184600183028401116401000000008311171561037257600080fd5b91908080601f016020809104026020016040519081016040528093929190818152602001838380828437600081840152601f19601f820116905080830192505050505050509192919290505050610a85565b005b3480156103d257600080fd5b50610496600480360360408110156103e957600080fd5b81019080803590602001909291908035906020019064010000000081111561041057600080fd5b82018360208201111561042257600080fd5b8035906020019184600183028401116401000000008311171561044457600080fd5b91908080601f016020809104026020016040519081016040528093929190818152602001838380828437600081840152601f19601f820116905080830192505050505050509192919290505050610aa8565b005b3480156104a457600080fd5b506104ad610e53565b6040518082815260200191505060405180910390f35b3480156104cf57600080fd5b506104d8610e65565b6040518082815260200191505060405180910390f35b3480156104fa57600080fd5b50610503610eac565b005b34801561051157600080fd5b5061051a610f5f565b604051808215151515815260200191505060405180910390f35b34801561054057600080fd5b50610549610f72565b6040518082815260200191505060405180910390f35b34801561056b57600080fd5b50610574610f78565b604051808273ffffffffffffffffffffffffffffffffffffffff1673ffffffffffffffffffffffffffffffffffffffff16815260200191505060405180910390f35b6105be610f9e565b005b3480156105cc57600080fd5b506105f9600480360360208110156105e357600080fd5b8101908080359060200190929190505050611086565b604051808273ffffffffffffffffffffffffffffffffffffffff1673ffffffffffffffffffffffffffffffffffffffff16815260200191505060405180910390f35b34801561064757600080fd5b506106506110b9565b005b61065a61128f565b005b34801561066857600080fd5b506106ab6004803603602081101561067f57600080fd5b81019080803573ffffffffffffffffffffffffffffffffffffffff1690602001909291905050506112fd565b604051808573ffffffffffffffffffffffffffffffffffffffff1673ffffffffffffffffffffffffffffffffffffffff16815260200184815260200183815260200182815260200194505050505060405180910390f35b3460085411610779576040517f08c379a000000000000000000000000000000000000000000000000000000000815260040180806020018281038252601a8152602001807f576520646f6e2774206861766520656e6f7567682066756e647300000000000081525060200191505060405180910390fd5b6000801515600960149054906101000a900460ff16151514156107a55761079e61134d565b90506107c5565b6000600960146101000a81548160ff021916908315150217905550600090505b600080905060006107db82600162030d40611396565b90507f94f2559b5e2b297de3db1587daf2352e872ada3dad01dab9ee3733592fa22ed360405180806020018281038252602681526020018061394c6026913960400191505060405180910390a1807fa19bd41ab5283f5176273e63c8e89f19b8ec4a5c787a6604f651632c71e0f29c33604051808273ffffffffffffffffffffffffffffffffffffffff1673ffffffffffffffffffffffffffffffffffffffff16815260200191505060405180910390a2336007600083815260200190815260200160002060006101000a81548173ffffffffffffffffffffffffffffffffffffffff021916908373ffffffffffffffffffffffffffffffffffffffff1602179055506108e6613806565b33816000019073ffffffffffffffffffffffffffffffffffffffff16908173ffffffffffffffffffffffffffffffffffffffff168152505034816020018181525050848160400181815250508381606001818152505080600660003373ffffffffffffffffffffffffffffffffffffffff1673ffffffffffffffffffffffffffffffffffffffff16815260200190815260200160002060008201518160000160006101000a81548173ffffffffffffffffffffffffffffffffffffffff021916908373ffffffffffffffffffffffffffffffffffffffff160217905550602082015181600101556040820151816002015560608201518160030155905050610a23826040518060400160405280600181526020017f3100000000000000000000000000000000000000000000000000000000000000815250610aa8565b5050505050565b60056020528060005260406000206000915090505481565b610a81828260006040519080825280601f01601f191660200182016040528015610a7b5781602001600182028038833980820191505090505b50610a85565b5050565b6000801b600360008060001b815260200190815260200160002081905550505050565b610ab0611931565b73ffffffffffffffffffffffffffffffffffffffff163373ffffffffffffffffffffffffffffffffffffffff1614610ae757600080fd5b6000610b68826040516020018082805190602001908083835b60208310610b235780518252602082019150602081019050602083039250610b00565b6001836020036101000a0380198251168184511680821785525050505050509050019150506040516020818303038152906040528051906020012060001c6002611c4e565b905060006007600085815260200190815260200160002060009054906101000a900473ffffffffffffffffffffffffffffffffffffffff169050610baa613806565b600660008373ffffffffffffffffffffffffffffffffffffffff1673ffffffffffffffffffffffffffffffffffffffff1681526020019081526020016000206040518060800160405290816000820160009054906101000a900473ffffffffffffffffffffffffffffffffffffffff1673ffffffffffffffffffffffffffffffffffffffff1673ffffffffffffffffffffffffffffffffffffffff168152602001600182015481526020016002820154815260200160038201548152505090508060400151831415610db3576000610c94610c8a83602001516002611cd8565b8360600151611d5e565b9050610ca66008548360200151611d5e565b600881905550610cf5600560008573ffffffffffffffffffffffffffffffffffffffff1673ffffffffffffffffffffffffffffffffffffffff1681526020019081526020016000205482611de7565b600560008573ffffffffffffffffffffffffffffffffffffffff1673ffffffffffffffffffffffffffffffffffffffff16815260200190815260200160002081905550857f04cab3657f64d71f15c1887100165dadd28bc26d3a77255585ac5e9f7dedab0d83602001516040518080602001838152602001828103825260068152602001807f57696e6e657200000000000000000000000000000000000000000000000000008152506020019250505060405180910390a250610e4c565b610dd0600854610dcb83602001518460600151611d5e565b611de7565b600881905550847f04cab3657f64d71f15c1887100165dadd28bc26d3a77255585ac5e9f7dedab0d82602001516040518080602001838152602001828103825260058152602001807f4c6f7365720000000000000000000000000000000000000000000000000000008152506020019250505060405180910390a25b5050505050565b600060024281610e5f57fe5b06905090565b6000600560003373ffffffffffffffffffffffffffffffffffffffff1673ffffffffffffffffffffffffffffffffffffffff16815260200190815260200160002054905090565b600960009054906101000a900473ffffffffffffffffffffffffffffffffffffffff1673ffffffffffffffffffffffffffffffffffffffff163373ffffffffffffffffffffffffffffffffffffffff1614610f0657600080fd5b6000600854905060006008819055503373ffffffffffffffffffffffffffffffffffffffff166108fc829081150290604051600060405180830381858888f19350505050158015610f5b573d6000803e3d6000fd5b5050565b600960149054906101000a900460ff1681565b60085481565b600960009054906101000a900473ffffffffffffffffffffffffffffffffffffffff1681565b600960009054906101000a900473ffffffffffffffffffffffffffffffffffffffff1673ffffffffffffffffffffffffffffffffffffffff163373ffffffffffffffffffffffffffffffffffffffff1614610ff857600080fd5b611041600560003373ffffffffffffffffffffffffffffffffffffffff1673ffffffffffffffffffffffffffffffffffffffff1681526020019081526020016000205434611de7565b600560003373ffffffffffffffffffffffffffffffffffffffff1673ffffffffffffffffffffffffffffffffffffffff16815260200190815260200160002081905550565b60076020528060005260406000206000915054906101000a900473ffffffffffffffffffffffffffffffffffffffff1681565b6000600560003373ffffffffffffffffffffffffffffffffffffffff1673ffffffffffffffffffffffffffffffffffffffff168152602001908152602001600020541161116e576040517f08c379a00000000000000000000000000000000000000000000000000000000081526004018080602001828103825260148152602001807f4e6f2066756e647320746f20776974686472617700000000000000000000000081525060200191505060405180910390fd5b6000600560003373ffffffffffffffffffffffffffffffffffffffff1673ffffffffffffffffffffffffffffffffffffffff1681526020019081526020016000205490506000600560003373ffffffffffffffffffffffffffffffffffffffff1673ffffffffffffffffffffffffffffffffffffffff168152602001908152602001600020819055503373ffffffffffffffffffffffffffffffffffffffff166108fc829081150290604051600060405180830381858888f1935050505015801561123d573d6000803e3d6000fd5b503373ffffffffffffffffffffffffffffffffffffffff167f42b2a4ad2d4bdf57e819ccd3c6ce6d0a8d6d20b5d3dbf94ef2b05c42f523c610826040518082815260200191505060405180910390a250565b600960009054906101000a900473ffffffffffffffffffffffffffffffffffffffff1673ffffffffffffffffffffffffffffffffffffffff163373ffffffffffffffffffffffffffffffffffffffff16146112e957600080fd5b6112f560085434611de7565b600881905550565b60066020528060005260406000206000915090508060000160009054906101000a900473ffffffffffffffffffffffffffffffffffffffff16908060010154908060020154908060030154905084565b60006113916040518060400160405280600581526020017f707269636500000000000000000000000000000000000000000000000000000081525062030d40611e6f565b905090565b600080831180156113a8575060208311155b6113b157600080fd5b600a84029350606060016040519080825280601f01601f1916602001820160405280156113ed5781602001600182028038833980820191505090505b5090508360f81b8160008151811061140157fe5b60200101907effffffffffffffffffffffffffffffffffffffffffffffffffffffffffffff1916908160001a905350606060206040519080825280601f01601f1916602001820160405280156114665781602001600182028038833980820191505090505b509050606060206040519080825280601f01601f19166020018201604052801561149f5781602001600182028038833980820191505090505b50905060006114ac612209565b905060208352424118600143034018602084015260208252806020830152606060206040519080825280601f01601f1916602001820160405280156115005781602001600182028038833980820191505090505b509050886020820152606060086040519080825280601f01601f19166020018201604052801561153f5781602001600182028038833980820191505090505b5090506115528260186008846000612526565b5061155b613844565b604051806080016040528087815260200188815260200186815260200184815250905060006115c06040518060400160405280600681526020017f72616e646f6d0000000000000000000000000000000000000000000000000000815250838c612585565b9050606060086040519080825280601f01601f1916602001820160405280156115f85781602001600182028038833980820191505090505b50905060208401517f0100000000000000000000000000000000000000000000000000000000000000810460278301537e01000000000000000000000000000000000000000000000000000000000000810460268301537d010000000000000000000000000000000000000000000000000000000000810460258301537c0100000000000000000000000000000000000000000000000000000000810460248301537b01000000000000000000000000000000000000000000000000000000810460238301537a01000000000000000000000000000000000000000000000000000081046022830153790100000000000000000000000000000000000000000000000000810460218301537801000000000000000000000000000000000000000000000000810460208301535061191e82828560016004811061173757fe5b602002015160028760006004811061174b57fe5b60200201516040518082805190602001908083835b602083106117835780518252602082019150602081019050602083039250611760565b6001836020036101000a038019825116818451168082178552505050505050905001915050602060405180830381855afa1580156117c5573d6000803e3d6000fd5b5050506040513d60208110156117da57600080fd5b8101908080519060200190929190505050876002600481106117f857fe5b60200201516040516020018085805190602001908083835b602083106118335780518252602082019150602081019050602083039250611810565b6001836020036101000a03801982511681845116808217855250505050505090500184805190602001908083835b602083106118845780518252602082019150602081019050602083039250611861565b6001836020036101000a03801982511681845116808217855250505050505090500183815260200182805190602001908083835b602083106118db57805182526020820191506020810190506020830392506118b8565b6001836020036101000a038019825116818451168082178552505050505050905001945050505050604051602081830303815290604052805190602001206128f2565b8199505050505050505050509392505050565b60008073ffffffffffffffffffffffffffffffffffffffff16600160009054906101000a900473ffffffffffffffffffffffffffffffffffffffff1673ffffffffffffffffffffffffffffffffffffffff1614806119b9575060006119b7600160009054906101000a900473ffffffffffffffffffffffffffffffffffffffff1661290e565b145b156119ca576119c86000612919565b505b600160009054906101000a900473ffffffffffffffffffffffffffffffffffffffff1673ffffffffffffffffffffffffffffffffffffffff166338cc48316040518163ffffffff1660e01b8152600401602060405180830381600087803b158015611a3457600080fd5b505af1158015611a48573d6000803e3d6000fd5b505050506040513d6020811015611a5e57600080fd5b810190808051906020019092919050505073ffffffffffffffffffffffffffffffffffffffff166000809054906101000a900473ffffffffffffffffffffffffffffffffffffffff1673ffffffffffffffffffffffffffffffffffffffff1614611ba757600160009054906101000a900473ffffffffffffffffffffffffffffffffffffffff1673ffffffffffffffffffffffffffffffffffffffff166338cc48316040518163ffffffff1660e01b8152600401602060405180830381600087803b158015611b2c57600080fd5b505af1158015611b40573d6000803e3d6000fd5b505050506040513d6020811015611b5657600080fd5b81019080805190602001909291905050506000806101000a81548173ffffffffffffffffffffffffffffffffffffffff021916908373ffffffffffffffffffffffffffffffffffffffff1602179055505b6000809054906101000a900473ffffffffffffffffffffffffffffffffffffffff1673ffffffffffffffffffffffffffffffffffffffff1663c281d19e6040518163ffffffff1660e01b815260040160206040518083038186803b158015611c0e57600080fd5b505afa158015611c22573d6000803e3d6000fd5b505050506040513d6020811015611c3857600080fd5b8101908080519060200190929190505050905090565b600080821415611cc6576040517f08c379a00000000000000000000000000000000000000000000000000000000081526004018080602001828103825260188152602001807f536166654d6174683a206d6f64756c6f206279207a65726f000000000000000081525060200191505060405180910390fd5b818381611ccf57fe5b06905092915050565b600080831415611ceb5760009050611d58565b6000828402905082848281611cfc57fe5b0414611d53576040517f08c379a000000000000000000000000000000000000000000000000000000000815260040180806020018281038252602181526020018061392b6021913960400191505060405180910390fd5b809150505b92915050565b600082821115611dd6576040517f08c379a000000000000000000000000000000000000000000000000000000000815260040180806020018281038252601e8152602001807f536166654d6174683a207375627472616374696f6e206f766572666c6f77000081525060200191505060405180910390fd5b600082840390508091505092915050565b600080828401905083811015611e65576040517f08c379a000000000000000000000000000000000000000000000000000000000815260040180806020018281038252601b8152602001807f536166654d6174683a206164646974696f6e206f766572666c6f77000000000081525060200191505060405180910390fd5b8091505092915050565b60008073ffffffffffffffffffffffffffffffffffffffff16600160009054906101000a900473ffffffffffffffffffffffffffffffffffffffff1673ffffffffffffffffffffffffffffffffffffffff161480611ef757506000611ef5600160009054906101000a900473ffffffffffffffffffffffffffffffffffffffff1661290e565b145b15611f0857611f066000612919565b505b600160009054906101000a900473ffffffffffffffffffffffffffffffffffffffff1673ffffffffffffffffffffffffffffffffffffffff166338cc48316040518163ffffffff1660e01b8152600401602060405180830381600087803b158015611f7257600080fd5b505af1158015611f86573d6000803e3d6000fd5b505050506040513d6020811015611f9c57600080fd5b810190808051906020019092919050505073ffffffffffffffffffffffffffffffffffffffff166000809054906101000a900473ffffffffffffffffffffffffffffffffffffffff1673ffffffffffffffffffffffffffffffffffffffff16146120e557600160009054906101000a900473ffffffffffffffffffffffffffffffffffffffff1673ffffffffffffffffffffffffffffffffffffffff166338cc48316040518163ffffffff1660e01b8152600401602060405180830381600087803b15801561206a57600080fd5b505af115801561207e573d6000803e3d6000fd5b505050506040513d602081101561209457600080fd5b81019080805190602001909291905050506000806101000a81548173ffffffffffffffffffffffffffffffffffffffff021916908373ffffffffffffffffffffffffffffffffffffffff1602179055505b6000809054906101000a900473ffffffffffffffffffffffffffffffffffffffff1673ffffffffffffffffffffffffffffffffffffffff16632ef3accc84846040518363ffffffff1660e01b81526004018080602001838152602001828103825284818151815260200191508051906020019080838360005b8381101561217957808201518184015260208101905061215e565b50505050905090810190601f1680156121a65780820380516001836020036101000a031916815260200191505b509350505050602060405180830381600087803b1580156121c657600080fd5b505af11580156121da573d6000803e3d6000fd5b505050506040513d60208110156121f057600080fd5b8101908080519060200190929190505050905092915050565b60008073ffffffffffffffffffffffffffffffffffffffff16600160009054906101000a900473ffffffffffffffffffffffffffffffffffffffff1673ffffffffffffffffffffffffffffffffffffffff1614806122915750600061228f600160009054906101000a900473ffffffffffffffffffffffffffffffffffffffff1661290e565b145b156122a2576122a06000612919565b505b600160009054906101000a900473ffffffffffffffffffffffffffffffffffffffff1673ffffffffffffffffffffffffffffffffffffffff166338cc48316040518163ffffffff1660e01b8152600401602060405180830381600087803b15801561230c57600080fd5b505af1158015612320573d6000803e3d6000fd5b505050506040513d602081101561233657600080fd5b810190808051906020019092919050505073ffffffffffffffffffffffffffffffffffffffff166000809054906101000a900473ffffffffffffffffffffffffffffffffffffffff1673ffffffffffffffffffffffffffffffffffffffff161461247f57600160009054906101000a900473ffffffffffffffffffffffffffffffffffffffff1673ffffffffffffffffffffffffffffffffffffffff166338cc48316040518163ffffffff1660e01b8152600401602060405180830381600087803b15801561240457600080fd5b505af1158015612418573d6000803e3d6000fd5b505050506040513d602081101561242e57600080fd5b81019080805190602001909291905050506000806101000a81548173ffffffffffffffffffffffffffffffffffffffff021916908373ffffffffffffffffffffffffffffffffffffffff1602179055505b6000809054906101000a900473ffffffffffffffffffffffffffffffffffffffff1673ffffffffffffffffffffffffffffffffffffffff1663abaa5f3e6040518163ffffffff1660e01b815260040160206040518083038186803b1580156124e657600080fd5b505afa1580156124fa573d6000803e3d6000fd5b505050506040513d602081101561251057600080fd5b8101908080519060200190929190505050905090565b606060008285019050808451101561253d57600080fd5b600086602001905060008460200190505b868860200101821015612576578189015180828801525060208201915060208101905061254e565b85935050505095945050505050565b60008073ffffffffffffffffffffffffffffffffffffffff16600160009054906101000a900473ffffffffffffffffffffffffffffffffffffffff1673ffffffffffffffffffffffffffffffffffffffff16148061260d5750600061260b600160009054906101000a900473ffffffffffffffffffffffffffffffffffffffff1661290e565b145b1561261e5761261c6000612919565b505b600160009054906101000a900473ffffffffffffffffffffffffffffffffffffffff1673ffffffffffffffffffffffffffffffffffffffff166338cc48316040518163ffffffff1660e01b8152600401602060405180830381600087803b15801561268857600080fd5b505af115801561269c573d6000803e3d6000fd5b505050506040513d60208110156126b257600080fd5b810190808051906020019092919050505073ffffffffffffffffffffffffffffffffffffffff166000809054906101000a900473ffffffffffffffffffffffffffffffffffffffff1673ffffffffffffffffffffffffffffffffffffffff16146127fb57600160009054906101000a900473ffffffffffffffffffffffffffffffffffffffff1673ffffffffffffffffffffffffffffffffffffffff166338cc48316040518163ffffffff1660e01b8152600401602060405180830381600087803b15801561278057600080fd5b505af1158015612794573d6000803e3d6000fd5b505050506040513d60208110156127aa57600080fd5b81019080805190602001909291905050506000806101000a81548173ffffffffffffffffffffffffffffffffffffffff021916908373ffffffffffffffffffffffffffffffffffffffff1602179055505b6060600460405190808252806020026020018201604052801561283257816020015b606081526020019060019003908161281d5790505b5090508360006004811061284257fe5b60200201518160008151811061285457fe5b60200260200101819052508360016004811061286c57fe5b60200201518160018151811061287e57fe5b60200260200101819052508360026004811061289657fe5b6020020151816002815181106128a857fe5b6020026020010181905250836003600481106128c057fe5b6020020151816003815181106128d257fe5b60200260200101819052506128e885828561292a565b9150509392505050565b8060036000848152602001908152602001600020819055505050565b6000813b9050919050565b6000612923612e8c565b9050919050565b60008073ffffffffffffffffffffffffffffffffffffffff16600160009054906101000a900473ffffffffffffffffffffffffffffffffffffffff1673ffffffffffffffffffffffffffffffffffffffff1614806129b2575060006129b0600160009054906101000a900473ffffffffffffffffffffffffffffffffffffffff1661290e565b145b156129c3576129c16000612919565b505b600160009054906101000a900473ffffffffffffffffffffffffffffffffffffffff1673ffffffffffffffffffffffffffffffffffffffff166338cc48316040518163ffffffff1660e01b8152600401602060405180830381600087803b158015612a2d57600080fd5b505af1158015612a41573d6000803e3d6000fd5b505050506040513d6020811015612a5757600080fd5b810190808051906020019092919050505073ffffffffffffffffffffffffffffffffffffffff166000809054906101000a900473ffffffffffffffffffffffffffffffffffffffff1673ffffffffffffffffffffffffffffffffffffffff1614612ba057600160009054906101000a900473ffffffffffffffffffffffffffffffffffffffff1673ffffffffffffffffffffffffffffffffffffffff166338cc48316040518163ffffffff1660e01b8152600401602060405180830381600087803b158015612b2557600080fd5b505af1158015612b39573d6000803e3d6000fd5b505050506040513d6020811015612b4f57600080fd5b81019080805190602001909291905050506000806101000a81548173ffffffffffffffffffffffffffffffffffffffff021916908373ffffffffffffffffffffffffffffffffffffffff1602179055505b60008060009054906101000a900473ffffffffffffffffffffffffffffffffffffffff1673ffffffffffffffffffffffffffffffffffffffff16632ef3accc86856040518363ffffffff1660e01b81526004018080602001838152602001828103825284818151815260200191508051906020019080838360005b83811015612c36578082015181840152602081019050612c1b565b50505050905090810190601f168015612c635780820380516001836020036101000a031916815260200191505b509350505050602060405180830381600087803b158015612c8357600080fd5b505af1158015612c97573d6000803e3d6000fd5b505050506040513d6020811015612cad57600080fd5b81019080805190602001909291905050509050823a02670de0b6b3a764000001811115612ce0576000801b915050612e85565b6060612ceb856133e3565b90506000809054906101000a900473ffffffffffffffffffffffffffffffffffffffff1673ffffffffffffffffffffffffffffffffffffffff1663c55c1cb68360008985896040518663ffffffff1660e01b8152600401808581526020018060200180602001848152602001838103835286818151815260200191508051906020019080838360005b83811015612d8f578082015181840152602081019050612d74565b50505050905090810190601f168015612dbc5780820380516001836020036101000a031916815260200191505b50838103825285818151815260200191508051906020019080838360005b83811015612df5578082015181840152602081019050612dda565b50505050905090810190601f168015612e225780820380516001836020036101000a031916815260200191505b5096505050505050506020604051808303818588803b158015612e4457600080fd5b505af1158015612e58573d6000803e3d6000fd5b50505050506040513d6020811015612e6f57600080fd5b8101908080519060200190929190505050925050505b9392505050565b600080612eac731d3b2638a7cc9f2cb3d298a3da7a90b67e5506ed61290e565b1115612f4e57731d3b2638a7cc9f2cb3d298a3da7a90b67e5506ed600160006101000a81548173ffffffffffffffffffffffffffffffffffffffff021916908373ffffffffffffffffffffffffffffffffffffffff160217905550612f456040518060400160405280600b81526020017f6574685f6d61696e6e6574000000000000000000000000000000000000000000815250613463565b600190506133e0565b6000612f6d73c03a2615d5efaf5f49f60b7bb6583eaec212fdf161290e565b111561300f5773c03a2615d5efaf5f49f60b7bb6583eaec212fdf1600160006101000a81548173ffffffffffffffffffffffffffffffffffffffff021916908373ffffffffffffffffffffffffffffffffffffffff1602179055506130066040518060400160405280600c81526020017f6574685f726f707374656e330000000000000000000000000000000000000000815250613463565b600190506133e0565b600061302e73b7a07bcf2ba2f2703b24c0691b5278999c59ac7e61290e565b11156130d05773b7a07bcf2ba2f2703b24c0691b5278999c59ac7e600160006101000a81548173ffffffffffffffffffffffffffffffffffffffff021916908373ffffffffffffffffffffffffffffffffffffffff1602179055506130c76040518060400160405280600981526020017f6574685f6b6f76616e0000000000000000000000000000000000000000000000815250613463565b600190506133e0565b60006130ef73146500cfd35b22e4a392fe0adc06de1a1368ed4861290e565b11156131915773146500cfd35b22e4a392fe0adc06de1a1368ed48600160006101000a81548173ffffffffffffffffffffffffffffffffffffffff021916908373ffffffffffffffffffffffffffffffffffffffff1602179055506131886040518060400160405280600b81526020017f6574685f72696e6b656279000000000000000000000000000000000000000000815250613463565b600190506133e0565b60006131b073a2998efd205fb9d4b4963afb70778d6354ad3a4161290e565b11156132525773a2998efd205fb9d4b4963afb70778d6354ad3a41600160006101000a81548173ffffffffffffffffffffffffffffffffffffffff021916908373ffffffffffffffffffffffffffffffffffffffff1602179055506132496040518060400160405280600a81526020017f6574685f676f65726c6900000000000000000000000000000000000000000000815250613463565b600190506133e0565b6000613271736f485c8bf6fc43ea212e93bbf8ce046c7f1cb47561290e565b11156132d557736f485c8bf6fc43ea212e93bbf8ce046c7f1cb475600160006101000a81548173ffffffffffffffffffffffffffffffffffffffff021916908373ffffffffffffffffffffffffffffffffffffffff160217905550600190506133e0565b60006132f47320e12a1f859b3feae5fb2a0a32c18f5a65555bbf61290e565b1115613358577320e12a1f859b3feae5fb2a0a32c18f5a65555bbf600160006101000a81548173ffffffffffffffffffffffffffffffffffffffff021916908373ffffffffffffffffffffffffffffffffffffffff160217905550600190506133e0565b60006133777351efaf4c8b3c9afbd5ab9f4bbc82784ab6ef8faa61290e565b11156133db577351efaf4c8b3c9afbd5ab9f4bbc82784ab6ef8faa600160006101000a81548173ffffffffffffffffffffffffffffffffffffffff021916908373ffffffffffffffffffffffffffffffffffffffff160217905550600190506133e0565b600090505b90565b60606133ed61347d565b6133f561386b565b61340181610400613489565b61340a816134d3565b60008090505b835181101561344c5761343f84828151811061342857fe5b6020026020010151836134e190919063ffffffff16565b8080600101915050613410565b5061345681613506565b8060000151915050919050565b8060029080519060200190613479929190613885565b5050565b60405180590338823950565b600081905060006020828161349a57fe5b06146134b357602081816134aa57fe5b06602003810190505b808360200181815250506040518084526000815281810160405250505050565b6134de816004613514565b50565b6134ee8260028351613535565b613501818361367590919063ffffffff16565b505050565b613511816007613514565b50565b613531601f60058360ff16901b178361372090919063ffffffff16565b5050565b601781116135615761355c8160058460ff16901b60ff16178461372090919063ffffffff16565b613670565b60ff81116135a257613586601860058460ff16901b178461372090919063ffffffff16565b61359c816001856137609092919063ffffffff16565b5061366f565b61ffff81116135e4576135c8601960058460ff16901b178461372090919063ffffffff16565b6135de816002856137609092919063ffffffff16565b5061366e565b63ffffffff81116136285761360c601a60058460ff16901b178461372090919063ffffffff16565b613622816004856137609092919063ffffffff16565b5061366d565b67ffffffffffffffff811161366c57613654601b60058460ff16901b178461372090919063ffffffff16565b61366a816008856137609092919063ffffffff16565b505b5b5b5b5b505050565b61367d61386b565b826020015183600001515183510111156136ad576136ac8360026136a6866020015186516137c7565b026137e3565b5b60008060008451905085518051602081830101945086518101825260208701935050505b602081106136f457815183526020830192506020820191506020810390506136d1565b60006001826020036101000a039050801983511681855116818117865250508694505050505092915050565b81602001516001836000015151011115613746576137458260028460200151026137e3565b5b815180516020818301018381536001820183525050505050565b61376861386b565b8360200151846000015151830111156137965761379584600261378f8760200151866137c7565b026137e3565b5b60006001836101000a0390508451805184818301018684198251161781528582018352505050849150509392505050565b6000818311156137d9578290506137dd565b8190505b92915050565b6060826000015190506137f68383613489565b6138008382613675565b50505050565b6040518060800160405280600073ffffffffffffffffffffffffffffffffffffffff1681526020016000815260200160008152602001600081525090565b60405180608001604052806004905b60608152602001906001900390816138535790505090565b604051806040016040528060608152602001600081525090565b828054600181600116156101000203166002900490600052602060002090601f016020900481019282601f106138c657805160ff19168380011785556138f4565b828001600101855582156138f4579182015b828111156138f35782518255916020019190600101906138d8565b5b5090506139019190613905565b5090565b61392791905b8082111561392357600081600090555060010161390b565b5090565b9056fe536166654d6174683a206d756c7469706c69636174696f6e206f766572666c6f774d6573736167652073656e742e2057616974696e6720666f7220616e20616e737765722e2e2ea265627a7a7231582075dc3cc4c621cab98817d36b3850c887c3d83d4d51ae0745bccbbe1f8d90063264736f6c63430005100032",
  "source": "pragma solidity =0.5.16;\r\n\r\nimport './provableAPI_0.5.sol';\r\nimport './SafeMath.sol';\r\n\r\ncontract Coinflip is usingProvable {\r\n    using SafeMath for uint;\r\n\r\n    struct Bet {\r\n        address playerAddress;\r\n        uint betValue;\r\n        uint headsTails;\r\n        uint setRandomPrice;\r\n    }\r\n\r\n    mapping(address => uint) public playerWinnings;\r\n    mapping (address => Bet) public waiting;\r\n    mapping (bytes32 => address) public afterWaiting;\r\n\r\n    event logNewProvableQuery(string description);\r\n    event sentQueryId(address caller, bytes32 indexed queryId);\r\n    event callbackReceived(bytes32 indexed queryId, string description, uint256 amount);\r\n    event userWithdrawal(address indexed caller, uint256 amount);\r\n\r\n    uint public contractBalance;\r\n\r\n    uint256 constant GAS_FOR_CALLBACK = 200000;\r\n    uint256 constant NUM_RANDOM_BYTES_REQUESTED = 1;\r\n\r\n    address payable public owner = msg.sender;\r\n\r\n    bool public freeCallback = true;\r\n\r\n    constructor() public payable{\r\n        owner = msg.sender;\r\n        contractBalance = msg.value;\r\n    }\r\n\r\n    modifier onlyOwner() {\r\n        require(msg.sender == owner);\r\n        _;\r\n    }\r\n\r\n\r\n    function random() public view returns (uint) {\r\n        return now % 2;\r\n    }\r\n\r\n    function callback(bytes32 _queryId, string memory _result) public {\r\n        require(msg.sender == provable_cbAddress());\r\n\r\n        //turn number into 1 or 0\r\n        uint256 flipResult = SafeMath.mod(uint256(keccak256(abi.encodePacked(_result))), 2);\r\n\r\n        //linking new mapping with new struct\r\n        address _player = afterWaiting[_queryId];\r\n\r\n        Bet memory postBet = waiting[_player];\r\n\r\n\r\n        if(flipResult == postBet.headsTails){\r\n            //winner\r\n            uint winAmount = SafeMath.sub(SafeMath.mul(postBet.betValue, 2), postBet.setRandomPrice);\r\n            contractBalance = SafeMath.sub(contractBalance, postBet.betValue);\r\n            playerWinnings[_player] = SafeMath.add(playerWinnings[_player], winAmount);\r\n\r\n            /**\r\n            *         @notice The following commented commands mirror the above commands sans SafeMath for readability.\r\n            *\r\n            *          uint winAmount = (postBet.betValue * 2) - postBet.setRandomPrice;\r\n            *          contractBalance -= postBet.betValue;\r\n            *          playerWinnings[_player] += winAmount;\r\n             */\r\n\r\n            emit callbackReceived(_queryId, \"Winner\", postBet.betValue);\r\n        } else {\r\n            //loser\r\n            contractBalance = SafeMath.add(contractBalance, SafeMath.sub(postBet.betValue, postBet.setRandomPrice));\r\n            /**\r\n            *           @notice For readability--see previous comment.\r\n            *\r\n            *          contractBalance += (postBet.betValue - postBet.setRandomPrice);\r\n             */\r\n            emit callbackReceived(_queryId, \"Loser\", postBet.betValue);\r\n        }\r\n    }\r\n\r\n    /**\r\n     *@notice This function simulates a coin flip which makes a call to the Provable oracle for\r\n     *        a random number.\r\n     *@dev The function first checks if this is the very first call to the Provable oracle in order\r\n     *     for the user to not pay for the first free call. This also adds user values to two different\r\n     *     mappings: 'waiting' and 'afterWaiting.' Both mappings are necessary in order to bridge the\r\n     *     user's address (which we has access to here with msg.sender) and the user's queryId sent from\r\n     *     Provable after the function call.\r\n     *\r\n     *@param oneZero - The numerical value of heads(0) or tails(1)\r\n      */\r\n\r\n    function flip(uint256 oneZero) public payable {\r\n        require(contractBalance > msg.value, \"We don't have enough funds\");\r\n        uint256 randomPrice;\r\n\r\n        if(freeCallback == false){\r\n            randomPrice = getQueryPrice();\r\n        } else {\r\n            freeCallback = false;\r\n            randomPrice = 0;\r\n        }\r\n\r\n        uint256 QUERY_EXECUTION_DELAY = 0;\r\n        bytes32 queryId = provable_newRandomDSQuery(\r\n            QUERY_EXECUTION_DELAY,\r\n            NUM_RANDOM_BYTES_REQUESTED,\r\n            GAS_FOR_CALLBACK\r\n            );\r\n        emit logNewProvableQuery(\"Message sent. Waiting for an answer...\");\r\n        emit sentQueryId(msg.sender, queryId);\r\n\r\n        afterWaiting[queryId] = msg.sender;\r\n\r\n        Bet memory newBetter;\r\n        newBetter.playerAddress = msg.sender;\r\n        newBetter.betValue = msg.value;\r\n        newBetter.headsTails = oneZero;\r\n        newBetter.setRandomPrice = randomPrice;\r\n\r\n        waiting[msg.sender] = newBetter;\r\n        callback(queryId,\"1\");\r\n    }\r\n\r\n\r\n\r\n    //combine gas and randomTx fee\r\n    function getQueryPrice() internal returns(uint256 _price) {\r\n        _price = provable_getPrice(\"price\", GAS_FOR_CALLBACK);\r\n    }\r\n\r\n\r\n    function withdrawUserWinnings() public {\r\n        require(playerWinnings[msg.sender] > 0, \"No funds to withdraw\");\r\n        uint toTransfer = playerWinnings[msg.sender];\r\n        playerWinnings[msg.sender] = 0;\r\n        msg.sender.transfer(toTransfer);\r\n        emit userWithdrawal(msg.sender, toTransfer);\r\n    }\r\n\r\n    function getWinningsBalance() public view returns(uint){\r\n        return playerWinnings[msg.sender];\r\n    }\r\n\r\n    /**\r\n    *@notice The following functions are reserved for the owner of the contract.\r\n     */\r\n\r\n    function fundContract() public payable onlyOwner {\r\n        contractBalance = SafeMath.add(contractBalance, msg.value);\r\n    }\r\n\r\n    function fundWinnings() public payable onlyOwner {\r\n        playerWinnings[msg.sender] = SafeMath.add(playerWinnings[msg.sender], msg.value);\r\n    }\r\n\r\n    function withdrawAll() public onlyOwner {\r\n        uint toTransfer = contractBalance;\r\n        contractBalance = 0;\r\n        msg.sender.transfer(toTransfer);\r\n    }\r\n\r\n}\r\n",
  "sourcePath": "C:/Users/Vasilis/Downloads/diceBNB/src/contracts/Coinflip.sol",
  "compiler": {
    "name": "solc",
    "version": "0.5.16+commit.9c3226ce.Emscripten.clang"
  },
  "schemaVersion": "3.3.2",
  "updatedAt": "2021-07-17T08:53:42.296Z",
  "networkType": "ethereum",
  "devdoc": {
    "methods": {
      "__callback(bytes32,string)": {
        "details": "The following `__callback` functions are just placeholders ideally     meant to be defined in child contract when proofs are used.     The function bodies simply silence compiler warnings."
      },
      "flip(uint256)": {
        "params": {
          "oneZero": "- The numerical value of heads(0) or tails(1)"
        }
      }
    }
  },
  "userdoc": {
    "methods": {
      "flip(uint256)": {
        "notice": "notice This function simulates a coin flip which makes a call to the Provable oracle for       a random number. dev The function first checks if this is the very first call to the Provable oracle in order    for the user to not pay for the first free call. This also adds user values to two different    mappings: 'waiting' and 'afterWaiting.' Both mappings are necessary in order to bridge the    user's address (which we has access to here with msg.sender) and the user's queryId sent from    Provable after the function call. "
      },
      "fundContract()": {
        "notice": "notice The following functions are reserved for the owner of the contract."
      }
    }
  }
}